:100000000C94E8050C942F060C942F060C942F06E4
:100010000C942F060C942F060C942F060C942F068C
:100020000C942F060C942F060C94AC260C9480276D
:100030000C941F210C942F060C942F060C942F0661
:100040000C942F060C942F060C942F060C942F065C
:100050000C942F060C9476210C942F060C942F06EA
:100060000C942F060C942F060C942F060C942F063C
:100070000C942F060C942F060C942F060C942F062C
:100080000C942F060C942F060C942F060C942F061C
:100090000C942F060C942F060C942F060C942F060C
:1000A0000C942F060C942F060C942F061150000070
:1000B0000000000052000000500051004F0010509E
:1000C0003B003C003D003E003F004000410042003C
:1000D00044454255473A2064697361626C65642EF9
:1000E0000A0044454255473A20656E61626C65647A
:1000F0002E0A000A0025303862003A2000253032EE
:1001000058000A722F632030313233343536370AC3
:10011000003F00433E20004C25640A0074696D6571
:10012000725F72656164333228293A202530346C5D
:10013000580A006B65796D61705F636F6E66696701
:100140002E6E6B726F3A2025580A006B6579626FCC
:100150006172645F69646C653A2025580A006B65BA
:1001600079626F6172645F70726F746F636F6C3A03
:100170002025580A00686F73745F6B6579626F6140
:1001800072645F6C65647328293A2025580A000A56
:10019000092D20537461747573202D0A0047434361
:1001A0003A20382E342E30204156522D4C494243AD
:1001B0003A20322E302E30204156525F4152434871
:1001C0003A20617672350A004F5054494F4E533AE7
:1001D000204C5546412045585452414B45592043E7
:1001E0004F4E534F4C4520434F4D4D414E44204EB2
:1001F0004B524F20343039360A004255494C443A6C
:100200002020284175672020322032303231290ADF
:10021000005649443A20307835333432284C6F6EDA
:1002200067757329205049443A203078333232358B
:100230002848757850616429205645523A20307814
:10024000303030310A000A092D2056657273696F0B
:100250006E202D0A000A092D20436F6E736F6C65A6
:10026000202D0A4553432F713A09717569740A00AC
:100270000A092D204D61676963202D0A443A09441B
:1002800065627567204D65737361676520546F679C
:10029000676C650A583A094D617472697820446543
:1002A000627567204D6F646520546F67676C6520C9
:1002B0002D2053686F77206B657970726573736555
:1002C0007320696E206D6174726978206772696449
:1002D0000A4B3A094B6579626F617264204465622A
:1002E000756720546F67676C65202D2053686F77A2
:1002F000206B65797072657373207265706F7274AC
:100300000A4D3A094465627567204D6F7573652023
:10031000546F67676C650A563A0956657273696F60
:100320006E0A533A095374617475730A433A09416A
:100330006374697661746520436F6E736F6C6520BA
:100340004D6F64650A46312D4631303A095377695D
:1003500074636820746F204C6179657220302D3988
:100360002028463130203D204C30290A302D393AA2
:100370000953776974636820746F204C61796572E2
:1003800020302D390A47524156453A09537769744E
:10039000636820746F204C61796572203020286179
:1003A0006C7465726E617465290A423A094A756D0A
:1003B0007020746F20426F6F746C6F616465720A95
:1003C0004553433A094A756D7020746F20426F6F30
:1003D000746C6F616465722028616C7465726E6103
:1003E0007465290A453A095072696E742045455072
:1003F000524F4D2053657474696E67730A425350AF
:100400004143453A09436C65617220454550524F5E
:100410004D0A4E3A094E4B524F20546F67676C6538
:100420000A000A002575002E6E6B726F3A20000AD2
:10043000002575002E737761705F6261636B736C6A
:100440006173685F6261636B73706163653A20001A
:100450000A002575002E737761705F67726176659B
:100460005F6573633A20000A002575002E6E6F5F8A
:100470006775693A20000A002575002E7377617050
:100480005F72616C745F726775693A20000A0025BB
:1004900075002E737761705F6C616C745F6C67754B
:1004A000693A20000A002575002E737761705F722B
:1004B00063746C5F726775693A20000A00257500E5
:1004C0002E737761705F6C63746C5F6C6775693AEB
:1004D00020000A002575002E636170736C6F636BDA
:1004E0005F746F5F636F6E74726F6C3A20000A0006
:1004F0002575002E737761705F636F6E74726F6C19
:100500005F636170736C6F636B3A20000A00253083
:100510003258006B65796D61705F636F6E666967F5
:100520002E7261773A20000A002575002E6D6F75D6
:1005300073653A20000A002575002E6B6579626F9D
:100540006172643A20000A002575002E6D61747294
:1005500069783A20000A002575002E656E61626C8C
:10056000653A20000A0025303258006465627567DC
:100570005F636F6E6669672E7261773A20000A00CA
:1005800025750064656661756C745F6C6179657270
:100590003A20003F004E4B524F3A206F66660A00E9
:1005A0004E4B524F3A206F6E0A000A6D6F7573659D
:1005B0003A206F66660A000A6D6F7573653A206FA0
:1005C0006E0A000A6B6579626F6172643A206F6629
:1005D000660A000A6B6579626F6172643A206F6E19
:1005E0000A000A6D61747269783A206F66660A00C3
:1005F0000A6D61747269783A206F6E0A000A646548
:100600006275673A206F66660A000A6465627567FC
:100610003A206F6E0A000A0A4A756D70696E67208B
:10062000746F20626F6F746C6F616465722E2E2E12
:100630002000433E2000436C656172696E6720456F
:100640004550524F4D0A006565636F6E6669673AA3
:100650000A007267626C6967687420736574206849
:100660007376205B4E4F454550524F4D5D3A2025E5
:10067000752C25752C25750A007267626C69676890
:10068000742073657420687376205B454550524F23
:100690004D5D3A2025752C25752C25750A0072674D
:1006A000626C696768742064697361626C65205B61
:1006B000454550524F4D5D3A207267626C696768DC
:1006C000745F636F6E6669672E656E61626C65202C
:1006D0003D2025750A007267626C69676874206541
:1006E0006E61626C65205B454550524F4D5D3A200E
:1006F0007267626C696768745F636F6E6669672EA4
:10070000656E61626C65203D2025750A0072676226
:100710006C6967687420746F67676C65205B45451A
:1007200050524F4D5D3A207267626C696768745F22
:10073000636F6E6669672E656E61626C65203D2031
:1007400025750A007267626C69676874206D6F6452
:1007500065205B4E4F454550524F4D5D3A20257503
:100760000A007267626C69676874206D6F64652047
:100770005B454550524F4D5D3A2025750A00726722
:10078000626C696768745F696E6974207267626C15
:10079000696768745F636F6E6669672E6D6F646505
:1007A000203D20302E205772697465206465666193
:1007B000756C742076616C75657320746F20454587
:1007C00050524F4D2E0A007267626C696768745F01
:1007D000696E6974206565636F6E66696720697309
:1007E000206E6F7420656E61626C65642E0A007203
:1007F00067626C696768745F696E6974207374619D
:100800007274210A007267626C696768745F696E4E
:1008100069742063616C6C65642E0A007267626C97
:10082000696768745F636F6E6669672E737065656C
:1008300064203D2025640A007267626C69676874F1
:100840005F636F6E6669672E76616C203D2025645C
:100850000A007267626C696768745F636F6E6669CD
:10086000672E736174203D2025640A007267626CF4
:10087000696768745F636F6E6669672E6875652067
:100880003D2025640A007267686C696768745F635D
:100890006F6E6669672E6D6F6465203D2025640A62
:1008A000007267626C696768745F636F6E66696720
:1008B0002E656E61626C65203D2025640A007267BA
:1008C000626C696768745F636F6E6669672045452F
:1008D00050524F4D3A0A000001010101010101018E
:1008E00001020202020202020202030303030303E3
:1008F00003030404040404040405050505050606B1
:10090000060606070707070708080808090909096E
:100910000A0A0A0B0B0B0C0C0C0D0D0D0E0E0E0F14
:100920000F0F1010111111121213131414151516A4
:10093000161717181819191A1A1B1B1C1D1D1E1E15
:100940001F20202122222324242526262728292966
:100950002A2B2C2D2D2E2F30313232333435363791
:1009600038393A3B3C3D3E3F40414243444546478F
:1009700048494A4C4D4E4F50515354555658595A68
:100980005B5D5E5F616264656668696B6C6D6F700C
:1009900072737577787A7B7D7E8082838587888A7B
:1009A0008C8E8F91939596989A9C9EA0A2A3A5A7B2
:1009B000A9ABADAFB1B3B5B7BABCBEC0C2C4C6C9AE
:1009C000CBCDCFD1D4D6D8DBDDDFE2E4E7E9EBEE67
:1009D000F0F3F5F8FAFDFF0A002530325820006BDD
:1009E0006579626F6172645F7265706F72743A20CC
:1009F000000A0025303258006B6579626F617264BD
:100A00005F7365745F6C65643A200064656C5F6B4E
:100A100065795F6269743A2063616E27742064654A
:100A20006C3A20253032580A006164645F6B657946
:100A30005F6269743A2063616E2774206164643A6E
:100A400020253032580A005B735D004B6579626F78
:100A50006172642073746172742E0A005B575D00CA
:100A60005B535D005B525D005B445D005B435D007A
:100A70000E0348007500780050006100640000001B
:100A80000E034C006F006E006700750073000000DD
:100A90000403090409025B00030100A0FA09040031
:100AA000000103010100092111010001224000079A
:100AB00005810308000A0904010001030000000980
:100AC0002111010001226D000705820320000A099F
:100AD000040200020300000009211101000122228A
:100AE000000705830320000107050303200001120E
:100AF00001100100000008425325320100010200EC
:100B0000010631FF0974A1010975150026FF009542
:100B100020750881020976150026FF0095207508CA
:100B20009102C005010980A101850319012AB700BE
:100B3000150126B700950175108100C0050C09014B
:100B4000A101850419012AA002150126A002950120
:100B500075108100C005010906A101850505071969
:100B6000E029E7150025019508750181020507199F
:100B70000029EF1500250195F0750181020508197E
:100B8000012905950575019102950175039101C033
:100B900005010906A101050719E029E7150025014E
:100BA00095087501810295017508810105071900F5
:100BB00029FF150026FF0095067508810005081914
:100BC000012905950575019102950175039101C0F3
:100BD00011241FBECFEFDAE0DEBFCDBF04B603FEA7
:100BE00027C08091630290916402A0916502B09148
:100BF00066028730904BA740B04BD1F4109263024D
:100C000010926402109265021092660214BE84B7BC
:100C1000877F84BF0FB6F894A895809160008861A3
:100C200080936000109260000FBEE0E0F8E3099549
:100C300011E0A0E0B1E0E8E3F4E502C005900D9218
:100C4000AA38B107D9F722E0AAE8B1E001C01D92A5
:100C5000A336B207E1F70E94DF230C949F290C947E
:100C60000000FF93EF93E0918A01F0918B013097A0
:100C700009F00995EF91FF910895FC01859180306D
:100C800011F0EFDFFBCF0895FF27E0E230E247FFEE
:100C90000CC0419597FF09C0EDE260957095809575
:100CA0009095611D711D811D911D27FF02C0219529
:100CB00030E350E2AA27660F771F881F991FAA1FEB
:100CC000A41710F0A41B63955A95A9F7AA3008F051
:100CD000A95FA05DAF93F39561157105810591053D
:100CE00041F7ED3211F4EF93F395F21718F43F93B7
:100CF000F395FBCF8F91B5DFFA95E1F70895E99170
:100D0000F9918591803021F0853219F0AADFF9CF71
:100D1000089520E0E89455915532C1F3503311F411
:100D2000689455915A3348F4505390F3220F022E91
:100D3000220F220F200D250FF4CF0EF4219589915B
:100D40009991533619F3533729F1533559F1BC01B1
:100D500088279927E8945C3621F4899199916894C1
:100D60005591543639F446EF7EF077FF0DC08FEF82
:100D70009FEF0AC055374AE039F0583540E121F07D
:100D8000523642E009F00895FF93EF937DDFEF9133
:100D9000FF91B7CFFF93EF93FC0181918030B9F3BE
:100DA00060DFFBCFFF93EF9368DFF1CFDF93CF934B
:100DB000CDB7DEB72596A3DFCF91DF91089581E00F
:100DC000089581E008950C94E10608950C94E506D9
:100DD0001F93CF93DF9300D000D00F92CDB7DEB733
:100DE00049835A836B833091AE0189819A81311195
:100DF0001DC06623B9F02223A9F00E94001E182FFF
:100E0000682F89819A810E94AB1D69817A81812F27
:100E10000F900F900F900F900F90DF91CF911F9137
:100E20000C94CC070E94D81D182FEFCF0E94001EF3
:100E300069817A81EDCFFC01262F40815181628149
:100E4000738184810C94E806CF93DF93EC0160E01A
:100E50000E941B07BE01DF91CF910C94E6060E9411
:100E6000441F811102C00E94E81F0C94CF090C940A
:100E7000D20908950E9415190E9439072FEF84E3C3
:100E80009CE0215080409040E1F700C000000C94AD
:100E90009A210F931F93CF93DF93EC0161E00E949F
:100EA0001B078C01BE010E94E306882341F1BE01AD
:100EB000C8010E943812882311F1BE01C8010E94A6
:100EC0008A128823E1F0BE01C8010E94AD13882375
:100ED000B1F0BE01C8010E944811882381F08A81C7
:100EE000882341F101308CE5180779F00F3D8CE53E
:100EF0001807E9F001151C45E9F40E943A0780E063
:100F0000DF91CF911F910F91089590911E02892F2B
:100F10008E7F90FF816080931E0280FF05C082EE6D
:100F200090E00E943D06EBCF80ED90E0FACF0E946A
:100F3000E81FE5CFCE01DF91CF911F910F910C9467
:100F4000DF06829590E09C01220F331F220F331F92
:100F50002C7C95958795959587958373282B30E004
:100F6000C901880F991F8A7A359527952575822B97
:100F7000089508950C94B90781E008950C94BC0776
:100F8000CF93C82F0E94BA078C2FCF910C94BE0725
:100F900090E080E008950895972F70E023E0929FFD
:100FA000600D711D1124FB0199E0899FE00DF11D79
:100FB0001124EE0FFF1FE455FF4F85919491089582
:100FC000FC01EE0FFF1FED50FF4F859194910895A6
:100FD000CF93DF930E94CC070E94F408EC018115A7
:100FE00020E5920708F041C0811530E4930708F02E
:100FF000B4C0803E910518F5803C910508F09DC075
:10100000883A910570F4853A910508F08EC08130D8
:101010009105F9F00097E9F00497D8F4D0E0C0E02A
:1010200018C08F3B9105D0F7C85AD0E0CC0FDD1F18
:10103000C35FDE4F0990D881C02DD4640AC08115EA
:10104000904258F4C11581E0D80718F4C83ED10584
:1010500028F7CE01DF91CF910895C11590E3D9070C
:1010600008F071C0CE019F706AC0811525E5920716
:1010700058F5811534E5930708F09EC0811542E5C7
:10108000940750F4C11581E5D80708F469C0DC2F36
:10109000CC27C16FD06ADDCF982F969596959E018B
:1010A00023703327C115D34508F077C0C1E0D0E0E5
:1010B00002C0CC0FDD1F2A95E2F720E2929FC0010B
:1010C0001124C82BD92B67C0C11589E5D807A8F40E
:1010D000C11598E5D90708F074C0C11526E5D207F7
:1010E00008F09CCF8C2F0E948B09C82FD0E0DC2FFA
:1010F000CC27CC27DF71D062ACCFC1153AE5D3073E
:1011000008F464C0CE0190568115904208F086CF55
:101110008D2F8F710E948B0990E0982F8827882748
:101120009F719C012C2BE901E6CFC55AD0E0C55C2C
:10113000DE4FC881D0E0D0648CCF805C91090E94E2
:10114000E007EC0186CFCE019927D3FF03C0EC0165
:10115000D86C7FCFEC01D06C7CCFDF70D06A79CFB8
:10116000CE01E4E096958795EA95E1F783702C2F00
:1011700026952695237090E2299F90011124382B03
:101180008C2F8370C1E0D0E002C0CC0FDD1F8A95A8
:10119000E2F7C22BD32BDC685CCFC1E0D0E002C009
:1011A000CC0FDD1F2A95E2F730E2939FC001112496
:1011B000C82BD92BDA684DCFD82FCC27C46FD06A73
:1011C00048CFDC2FCC27C06FD06A43CF8C2F8F70D5
:1011D0000E948B0934E0D695C7953A95E1F7CF7018
:1011E0009C2FEC01D06935CF82389105B1F1B0F474
:1011F0008133910509F475C048F48932910509F4E9
:1012000069C08A32910509F473C008958533910548
:1012100009F459C08933910501F10895833E910580
:10122000A9F138F4803E9105F9F0823E910549F12B
:101230000895863E9105A9F1873E9105C9F1843E46
:10124000910519F52091550221FF1FC0809154028C
:1012500084FD14C087EE90E008952091540223701D
:10126000A1F080EE90E008952091540220FD47C047
:101270003091550230FF09C024FF44C090E080E067
:1012800004C02091540222FDF7CF0895209154020A
:1012900022FD3BC03091550230FDE3CF24FFF5CF56
:1012A000EDCF2091540223FFF0CF24FDE7CFD2CF22
:1012B0002091540223FD2CC03091550231FFEECF16
:1012C00084EE90E008952091540225FFDECF89E25C
:1012D00090E008952091540225FFD7CF85E390E058
:1012E00008952091540226FFD0CF8AE290E008951D
:1012F0002091540226FFC9CF81E390E0089589E34D
:1013000090E0089583EE90E0089582EE90E00895D5
:1013100086EE90E008959091540292FF06C0282F27
:1013200028712830F9F4877F846093FF06C0282F46
:1013300028712831F1F4877E84612091550220FFC5
:1013400006C0382F38713830D9F4877F816021FF8B
:1013500006C0282F28712831D1F4877E816194FD41
:10136000877E0895282F24712430F9F68B7F8860BA
:10137000DCCF282F2471243101F78B7E8861DDCFEB
:10138000382F3171313019F78E7F8860E0CF282FE8
:101390002171213121F78E7E8861E1CF08950C946F
:1013A000CE0908950C94D109E82FF0E0E85BFD4FD9
:1013B00080810895CF92DF92EF92FF920F931F9357
:1013C000CF93DF9382E091E00E943D0688E4E82E0F
:1013D00082E0F82ED0E0C0E09DEFC92E90E0D92E3B
:1013E00005EF10E0DF93CF93DF92CF920E94D606F5
:1013F0008AEF90E00E943D06F70181917F010E94F3
:10140000A1071F928F931F930F930E94D60683EF1D
:1014100090E00E943D0621968DB79EB708960FB6C4
:10142000F8949EBF0FBE8DBFC330D105D9F6DF91B2
:10143000CF911F910F91FF90EF90DF90CF90089583
:10144000FF920F931F93CF93DF932EE331E067E476
:1014500071E0C1E0D0E0D90150E040E08D918F3FD4
:1014600091F0E82FE295EF70F0E0F1A08F708E011F
:1014700001C0000F8A95EAF7902F90959F2191A3C4
:1014800082A1802B82A34F5F5F4F4330510531F71C
:101490002D5F3F4F62177307F1F6109245021092CD
:1014A000480210924602109249021092470210928E
:1014B0004A0283E00E94B80ADF91CF911F910F91F9
:1014C000FF900C942F07EF92FF920F931F93CF93EF
:1014D000DF93E5E4F2E06EE371E0C0E001E010E0EC
:1014E0007B0150E040E030E0D7012D917D012F3F9E
:1014F000B9F0822F82958F7090E0DC0190968C91EC
:1015000090E02F7002C0959587952A95E2F780FDAF
:101510002BC0C801042E01C0880F0A94EAF7382BAB
:101520004F5F5F4F43305105F9F680818317F1F02B
:10153000308381E0C82B31966D5F7F4FB1E0673417
:101540007B0771F62C2F43E068E472E085E492E0BB
:101550000E94B90A0E9437078C2FDF91CF911F910B
:101560000F91FF90EF90089580E0D9CF80E0E2CF17
:101570000895FF920F931F93CF93DF93F82E092FB7
:10158000162FD72FC42F222349F081E080938E019C
:101590000E944F2190938D0180938C0180918E0148
:1015A0008823A1F080918C0190918D010E94672188
:1015B000069760F0EF2DF02FA12FBD2FCE0FDF2F5C
:1015C000D11DEC17FD0741F410928E01DF91CF91F0
:1015D0001F910F91FF90089581918D93F2CFCF933A
:1015E000C82F1F928F9387E191E09F938F930E9462
:1015F000D60661E070E080E090E004C0660F771FDF
:10160000881F991FCA95D2F70E94AD1C0F900F90AA
:101610000F900F90CF910C941519CF93DF93EBEFB0
:10162000E80FEF3308F040C2F0E0EF55F64D0C94B0
:10163000512987E496E00E943D0683E895E00E94E8
:101640003D060E94531F1F928F9380E895E09F9361
:101650008F930E94D6068EE795E00E943D060E9479
:101660004F1FC82F8BE695E00E943D061F92CF9337
:1016700086E695E09F938F930E94D60684E695E0D8
:101680000E943D068AE595E00E943D068C2F817000
:101690001F928F9387E595E09F938F930E94D606C4
:1016A00085E595E00E943D068BE495E00E943D06AD
:1016B000C1FB882780F91F928F9388E495E09F9360
:1016C0008F930E94D60686E495E00E943D068AE349
:1016D00095E00E943D06C2FB882780F91F928F93F8
:1016E00087E395E09F938F930E94D60685E395E06C
:1016F0000E943D068CE295E00E943D06C3FBCC278C
:10170000C0F91F92CF9389E295E09F938F930E9437
:10171000D60687E295E00E943D060E94571FEC0125
:1017200083E195E00E943D06DF93CF938EE095E044
:101730009F938F930E94D6068CE095E00E943D0611
:1017400083EF94E00E943D068C2F81701F928F934F
:1017500080EF94E09F938F930E94D6068DB79EB73B
:1017600080960FB6F8949EBF0FBE8DBF8EEE94E0AC
:101770000E943D0687ED94E00E943D06C1FB88274C
:1017800080F91F928F9384ED94E09F938F930E9432
:10179000D60682ED94E00E943D0680EC94E00E9423
:1017A0003D068D2F81701F928F938DEB94E09F9358
:1017B0008F930E94D6068BEB94E00E943D0689EA47
:1017C00094E00E943D06D695D1701F92DF9386EA81
:1017D00094E09F938F930E94D60684EA94E00E943F
:1017E0003D0682E994E00E943D06C2FB882780F90D
:1017F0001F928F938FE894E09F938F930E94D60659
:101800008DE894E00E943D068BE794E00E943D063F
:10181000C3FB882780F91F928F9388E794E09F93FA
:101820008F930E94D60686E794E00E943D068CE6E0
:1018300094E00E943D06C4FB882780F91F928F9395
:1018400089E694E09F938F930E94D60687E694E002
:101850000E943D0685E594E00E943D06C5FB882771
:1018600080F91F928F9382E594E09F938F930E945B
:10187000D60680E594E00E943D0684E394E00E9451
:101880003D06C6FB882780F91F928F9381E394E081
:101890009F938F930E94D6068DB79EB780960FB602
:1018A000F8949EBF0FBE8DBF8FE294E00E943D066C
:1018B00087E294E00E943D06C7FBCC27C0F91F9247
:1018C000CF9384E294E09F938F930E94D60682E2A6
:1018D00094E00E943D060F900F900F900F9081E0D2
:1018E0001CC086E396E00E943D060E94E81FF7CFE9
:1018F00080E792E00E943D06F2CF80911E02807F39
:1019000080931E0285E592E00E943D0682E396E008
:101910000E943D0681E080938F01DF91CF91089571
:1019200086E196E00E943D060E943A07D8CF90914A
:101930001E02892F8E7F90FF816080931E0280FFA0
:1019400003C08AE096E0D6CF8DEF95E00E943D0679
:1019500080911E02817F80931E02C1CF90911E0252
:10196000892F8D7F91FF826080931E0281FF08C0C6
:1019700080EF95E00E943D0680911E028160EBCFD2
:1019800082EE95E0B7CF90911E02892F8B7F92FF58
:10199000846080931E0282FF03C083ED95E0EACF4E
:1019A00083EC95E0A7CF90911E02892F877F93FF4C
:1019B000886080931E0283FF03C087EB95E0DACF37
:1019C0008AEA95E097CF86E492E00E943D0681E1A5
:1019D00092E00E943D068AEF91E00E943D0688EC6D
:1019E00091E00E943D068DE991E084CF8FE891E07F
:1019F0000E943D060E94DC131F928F9385E791E0C1
:101A00009F938F930E94D60680910C011F928F9313
:101A10008EE591E09F938F930E94D60680914402B9
:101A20001F928F938BE491E09F938F930E94D60631
:101A30008091540287FB882780F91F928F9383E35C
:101A400091E09F938F930E94D6060E945B219F9303
:101A50008F937F936F938CE191E09F938F930E947C
:101A6000D6068DB79EB746960FB6F8949EBF0FBEAA
:101A70008DBF35CF0E94151990915402892F97FB85
:101A800087F980588093540287FF03C080EA95E06D
:101A900031CF85E995E02ECF80E00E94EF0A1FCF7D
:101AA0008953FBCF8D51F9CF83E995E00E943D0624
:101AB00080E033CF80E008950C945A0DCF93C82F67
:101AC00080918F01882331F0813099F010928F013D
:101AD00080E00DC00E94951E8232D1F78C2F0E94AB
:101AE0005A0D811119C08C2F0E940D0B8170CF915E
:101AF00008950E94951E823289F38C2F0E945C0DFE
:101B0000811119C0C431C9F050F4CB3061F081E1CA
:101B100091E00E943D0613C081E090E0E7CFC9321A
:101B200061F0C833A1F785E592E00E943D0683E1AC
:101B300091E00E943D0681E0D9CF10928F0180E0B4
:101B4000D5CFEF92FF920F931F93CF93DF93EB01CB
:101B5000E82FD11110C0442321F0F0E0E952F74FF3
:101B6000E4916E2F7E2F8E2FDF91CF911F910F91D9
:101B7000FF90EF9008950D2F10E0282F30E04423C0
:101B800029F02952374FF901249130E0F6E0CF9F38
:101B9000C0011124EFEFF0E0BF010E943D29AB012D
:101BA0008C2F90E0880F991FA5E5A49FB001A59FF9
:101BB000700D1124861B970B982F990F980FBF015A
:101BC000601B710B629FD001639FB00D729FB00DBF
:101BD00011248B2F9D9FB0011124672F7727EF01D0
:101BE000C61BD70BBE01629FE001639FD00D729FA1
:101BF000D00D11247F01E91AF108E09EB001E19EA9
:101C0000700DF09E700D1124672F7727E61BF70BE0
:101C1000E29F8001E39F100DF29F100D1124E12F30
:101C2000722F4230510599F048F44115510569F081
:101C30004130510581F0EB2F8D2F07C04430510505
:101C400069F080F046305105B1F76E2F8DCFE22F4D
:101C50007B2F812FFACFE22F7D2FF7CFEB2F822F13
:101C6000712FF3CF7B2F822FED2FEFCF41E00C941C
:101C7000A10D0C94360ECF93DF93762FE901682FD8
:101C8000842F0E94390E798368838A83DF91CF91F4
:101C9000089580914B02982F9E7F39F480914B02DA
:101CA0008170826080934B0208958430B8F7089564
:101CB00088E090E00C945F29CF92DF92EF92FF9240
:101CC0006B017C010E94490EB701A60188E090E0FB
:101CD000FF90EF90DF90CF900C947D29EBE4F2E041
:101CE00083E0808311828FEF8283838314826081FB
:101CF0007181828193810C945C0E80911E0280FF21
:101D000076C08EEB98E09F938F930E94D6068091C9
:101D10001E020F900F9080FF6AC080914B0281706D
:101D20001F928F9381EA98E09F938F930E94D6062B
:101D300080911E020F900F900F900F9080FF57C060
:101D400080914B0286951F928F9386E898E09F932F
:101D50008F930E94D60680911E020F900F900F90D5
:101D60000F9080FF44C080914C021F928F938CE6AD
:101D700098E09F938F930E94D60680911E020F9049
:101D80000F900F900F9080FF32C080914D021F92F4
:101D90008F9382E598E09F938F930E94D60680915F
:101DA0001E020F900F900F900F9080FF20C0809127
:101DB0004E021F928F9388E398E09F938F930E9427
:101DC000D60680911E020F900F900F900F9080FF0B
:101DD0000EC080914F021F928F938CE198E09F93E9
:101DE0008F930E94D6060F900F900F900F9008953A
:101DF00090914F02933018F49F5F90934F02882385
:101E000051F060914B0270914C0280914D02909183
:101E10004E020C945C0E089581E00C94F80E9091A3
:101E20004F02992319F0915090934F02882351F05B
:101E300060914B0270914C0280914D0290914E0244
:101E40000C945C0E089581E00C940F0F70E00C94DC
:101E5000A0116091910180914B0280FF0AC0809196
:101E6000900123E0829FC0011124805B9D4F0C9460
:101E7000260F809192019091930123E0829FF001BF
:101E80001124E05BFD4F891750F7118210821282F6
:101E90008F5F3396F8CF80914B028E7F80934B02F9
:101EA00060914B0270914C0280914D0290914E02D4
:101EB0000E945C0E80911E0280FF0FC080914B0239
:101EC00081701F928F938EE996E09F938F930E946B
:101ED000D6060F900F900F900F902FEF80E792E0B3
:101EE000215080409040E1F700C000000C94290F81
:101EF00090914B0290FF14C0909192012091930118
:101F000033E0939FF0011124E05BFD4F921710F036
:101F10000C94290F8183608342839F5F3396F6CFB1
:101F20000895EF92FF920F931F93CF93DF9300D00A
:101F30000F92CDB7DEB7182F062FF42EE22E809128
:101F40004B0280FF43C0E82FE695F0E0E95BFE4FCF
:101F50009081909396018E7F823059F49E012F5F7D
:101F60003F4F812F0E943B0E4B8169818A810E94E5
:101F7000780F10934C0200934D02F0924E02EE2027
:101F800079F160914B0270914C0280914D029091D9
:101F90004E020E945C0E80911E0280FF17C080914D
:101FA0004E021F928F9380914D021F928F938091CA
:101FB0004C021F928F9389E796E09F938F930E9424
:101FC000D6060FB6F894DEBF0FBECDBF0F900F90B0
:101FD0000F90DF91CF911F910F91FF90EF90089597
:101FE00080911E0280FFF2CF1F92FF921F920F93EB
:101FF0001F921F9382E596E0E0CFEBE4F2E091813F
:10200000282F4381628188E0890F0C94910F81E031
:102010000C94FD0FEBE4F2E09181282F4381628163
:1020200088EF890F0C94910F81E00C940A10EBE477
:10203000F2E0628121E1620F08F46FEF282F438103
:1020400081810C94910F81E00C941710EBE4F2E085
:10205000628121E1621B08F460E0282F43818181C5
:102060000C94910F81E00C942610EBE4F2E0438194
:1020700021E1420F08F44FEF282F628181810C94F7
:10208000910F81E00C943510EBE4F2E0438121E103
:10209000421B08F440E0282F628181810C94910F4B
:1020A00081E00C94441020E00C94910F80914B023D
:1020B00080FF35C08170826080934B02662329F1D6
:1020C00060914B0270914C0280914D0290914E02B2
:1020D0000E945C0E80911E0280FF0FC080914B0217
:1020E00086951F928F9382E697E09F938F930E942D
:1020F000D6060F900F900F900F9040914E02609176
:102100004D0280914C020C94531080911E0280FF6E
:10211000F4CF1F9281E08F9384E497E0E6CF089597
:10212000682F81E00C94561081E00C949010682F79
:1021300090914B0296958FEF890F09F481E00C94F2
:10214000561081E00C94971061E00C945610809129
:102150004B02816080934B0280911E0280FF0DC074
:102160001F9281E08F9386ED96E09F938F930E945C
:10217000D6060F900F900F900F9080914B0286958E
:102180000C94A41080911E0280FF10C080914B021D
:10219000809581701F928F938DE097E09F938F932E
:1021A0000E94D6060F900F900F900F9080914B02D7
:1021B00080FD0C944B0F0C94A71060E00C9456100B
:1021C0008091950181115EC080911E0280FF14C034
:1021D00085E098E09F938F930E94D60680911E021F
:1021E0000F900F9080FF08C08FEE97E09F938F9322
:1021F0000E94D6060F900F900E94441F811110C0BC
:1022000080911E0280FF08C087EC97E09F938F9318
:102210000E94D6060F900F900E94E81F0E946E0E3B
:102220000E94580E60934B0270934C0280934D02B3
:1022300090934E026E7FC1F480911E0280FF08C011
:102240008EE797E09F938F930E94D6060F900F9092
:102250000E946E0E0E94580E60934B0270934C02C7
:1022600080934D0290934E020E94490E0E947D0E73
:1022700080914B0280FF03C086950E94DD1081E0B3
:10228000809395010895FA01811101C0FB01099421
:102290000F931F93CF938C01FB01C281CC2309F4D0
:1022A0004DC00E94951E8272F801E35CFC45E4314A
:1022B000F10538F4E052F64D0C9451290E94C210F9
:1022C000C0E08C2FCF911F910F91089541EA50E10A
:1022D00064E970E10E944311F3CF44E950E161EAFF
:1022E00070E1F8CF44E150E167E070E1F3CF47E0FF
:1022F00050E164E170E1EECF42E350E163E270E16E
:10230000E9CF43E250E162E370E1E4CF40E550E120
:1023100061E470E1DFCF41E450E160E570E1DACFE4
:1023200043E25FE06CE07FE0D5CF4CE05FE063E24A
:102330007FE0D0CF81E00E94A410C2CFC1E0C1CF26
:10234000509A4BB14E7F5BB15160EFB7F8949B014F
:10235000220F331F260F371F280F391F2817390761
:1023600041F4EFBF8FE594E00197F1F700C0000062
:102370000895DC016D91CD0178E05BB9000000C0EB
:1023800067FF4BB9660F000000C000C000C04BB92A
:1023900000C07A9591F7E2CF0F931F93CF93DF930D
:1023A000C42FD22FFC0182818823C9F040939A0167
:1023B0000E944F21909399018093980180E28C0FA5
:1023C000883008F050C0C77081E001C0880FCA95FE
:1023D000EAF7DF91CF911F910F910C94AB161091FA
:1023E0009A01141335C080919801909199010E942F
:1023F0006721883C910560F5C0E2CD0F1D17B9F04B
:1024000080E2810F883040F4177081E001C0880FAE
:102410001A95EAF70E94B216C83048F481E09D2F61
:10242000977001C0880F9A95EAF70E94AB16802F2B
:102430000E94A316C830B8F4D77081E001C0880F9D
:10244000DA95EAF7DF91CF911F910F910C94B216B4
:1024500080E28C0F883038F4C77081E001C0880FAB
:10246000CA95EAF7EFCFDF91CF911F910F910895B1
:102470000F939C01CB01243F4CE5340759F1A8F49C
:10248000293DFCE53F0701F12A3D4CE53407D1F138
:10249000283D3C4591F406E221EE41EE68ED7CE5F5
:1024A0000E94CC1180E00F910895263FFCE53F0784
:1024B000E9F0B0F0273F3C45F9F0FC018281882328
:1024C00039F110929A01EFCF07E225EE45EE69ED62
:1024D0007CE5E6CF06E221EE40EE64EF7CE5E0CF5E
:1024E00007E225EE44EE65EF7CE5DACF06E221EE69
:1024F00042EE66EF7CE5D4CF07E225EE46EE67EFCD
:102500007CE5CECF08E221E045EE6AED7CE5C8CF60
:1025100081E0C9CFCF93DF93EC01FB018281882357
:1025200009F419C1C230FCE5DF07C0F1C6319CE5F2
:10253000D90730F09E012B5F3C452930310570F5FD
:102540000E94571F9093550280935402C031ECE5CE
:10255000DE0709F4CFC008F05BC0C8308CE5D807AF
:1025600009F4B6C088F5C430ECE5DE0709F4A8C06C
:10257000C0F4C2308CE5D80709F49CC080915402A5
:102580008260C330DC4509F498C080915402909178
:1025900055020E94651F0E94151980E0DF91CF91BE
:1025A0000895809154028061C630ECE5DE0709F49D
:1025B00084C0809154028860C730DC4508F47DC037
:1025C00080915402806279C0CC308CE5D80709F440
:1025D00089C070F4809154028C60CA30ECE5DE074B
:1025E00009F46BC008F478C0809154028E7F65C0F6
:1025F000CE308CE5D80709F479C0809154028B7FE6
:10260000CF30DC4508F459C0809154028F7E55C00C
:10261000CC3FECE5DE0709F457C030F5C3318CE55B
:10262000D80709F46FC078F4C131ECE5DE0709F48E
:1026300065C0C231DC4509F0A8CF0E941519809110
:1026400054028F773AC0C5318CE5D80709F462C0CF
:1026500008F476C0809155028160CB3FDC4509F0DB
:1026600094CF8093550291CFC115FDE5DF0709F4A2
:102670004DC088F4809155028D7FCE3F9CE5D907EF
:1026800081F3809155028E7FCF3FDC4550F38091DE
:1026900055028360E6CFC230FDE5DF0709F459C07B
:1026A00008F444C080E0C330DD4509F06ECF0E94DD
:1026B000EA1F6BCF8091540281608093540265CFF2
:1026C000809154028460F9CF809155028260C9CF15
:1026D000809154028064F1CF0E94151980915402B8
:1026E0008068EBCF809154028D7FE7CF80915402B8
:1026F000877FE3CF809154028F7DDFCF809154029A
:102700008F7BDBCF80915402837FD7CF809155029E
:102710008C7FA7CF8091540282FB992790F921E00A
:10272000922790FB82F990FB83F9C7CF80915502E5
:10273000982F909591708E7F892B90FB81F991CF86
:102740000E94151990915402892F97FB87F98058A0
:10275000B4CF81E0ACCF81E021CFCF93DF93EB0109
:1027600086319C4511F50E94951E9A81992399F016
:102770008A7A91E009F490E090939B01811109C05D
:1027800089E20E94701E0E94E11E80E0DF91CF91DD
:10279000089585E3F6CF80919B01811104C089E201
:1027A0000E94771EF0CF85E3FBCF81E0EFCF9093BF
:1027B000A1018093A0010895E091A001F091A101F1
:1027C000309721F00190F081E02D099480E0089588
:1027D000EF92FF920F931F93CF93DF93EC01E09161
:1027E000A001F091A101309709F446C080910C013D
:1027F000882341F08091540287FF04C08881898337
:1028000085E088830280F381E02DCE0109958091D7
:102810001E0282FF31C080FF04C08FED99E00E944C
:102820003D0610E000E089EDE82E89E0F82E809169
:102830001E0280FF0EC0FE01E00FF11F80811F927B
:102840008F93FF92EF920E94D6060F900F900F90F9
:102850000F900F5F1F4F0830110549F780911E023E
:1028600080FF0AC087ED99E0DF91CF911F910F9112
:10287000FF90EF900C943D06DF91CF911F910F9147
:10288000FF90EF90089520919E0130919F012817AD
:10289000390771F090939F0180939E01E091A00110
:1028A000F091A101309721F00680F781E02D099485
:1028B000089520919C0130919D012817390771F0EE
:1028C00090939D0180939C01E091A001F091A10162
:1028D000309721F00084F185E02D099408950E943D
:1028E0005B216093AA017093AB018093AC0190933C
:1028F000AD016093A6017093A7018093A801909306
:10290000A901089585B7806885BF85B7806885BFB0
:102910000895089508950C94891408950C948D14C5
:102920000E9482148DE793E20E94AB210E948A14D8
:102930000C948B1481E008950C949A1408950895D2
:102940000E9446210E94200A0E94B0210E94E010AD
:102950000C948E14CF93C82F80911E0282FF1EC04C
:1029600080FF1CC088EF99E00E943D0680911E0206
:1029700080FF14C01F92CF9383EF99E09F938F93B2
:102980000E94D60680911E020F900F900F900F901C
:1029900080FF04C081EF99E00E943D068C2FCF910B
:1029A0000C94C007BF92CF92DF92EF92FF920F93E9
:1029B0001F93CF93DF93CDB7DEB72A970FB6F89466
:1029C000DEBF0FBECDBF0E949E140E949F140E94C6
:1029D000630A81110E946F1433EAC32E31E0D32EB3
:1029E00010E000E0B02E802F0E94D409E82EF601FE
:1029F000F1906F01F81609F453C080911E0281FD19
:102A00000E94DA098F2D8E25F82FF170FF2E80FDA0
:102A100040C081FD40C082FF43C092E0D92E24E037
:102A2000F22E0E949C14882399F0DE82BF82EF2050
:102A300081E009F480E088870E944F218160782F2F
:102A40009A8789874E815F8168858A850E9477157C
:102A5000F801ED55FE4F8081F826F0820E94DC13CC
:102A60009091A201891799F10E94DC138093A20131
:102A70002A960FB6F894DEBF0FBECDBFDF91CF917F
:102A80001F910F91FF90EF90DF90CF90BF900C942B
:102A9000AA14D12CC6CFDD24D39482E0F82EC1CF66
:102AA0000F5F1F4F0330110509F09CCF8FEF898313
:102AB0008A831B820E944F218160782F9D838C83A3
:102AC00049815A816B818D810E947715C7CF2A96E3
:102AD0000FB6F894DEBF0FBECDBFDF91CF911F912F
:102AE0000F91FF90EF90DF90CF90BF900895DF920D
:102AF000EF92FF920F931F93CF93DF93CDB7DEB783
:102B00002B970FB6F894DEBF0FBECDBF7A878B87A9
:102B1000F42E052F162FE72ED82E61110E94B51E18
:102B20001E821D827E2DEC82DD824F2D502F612F63
:102B30008D2D9E812B960FB6F894DEBF0FBECDBFB4
:102B4000DF91CF911F910F91FF90EF90DF900C9448
:102B50008B1BFC01808191810C94421ECF93C82F66
:102B6000882309F488C08238C1F40E94DC1381FDF7
:102B700082C089E30E94701E0E94E11E2FEF81EE49
:102B800094E0215080409040E1F700C0000089E3CC
:102B90000E94771ECF910C94E11E8338A1F40E940D
:102BA000DC1380FD68C083E50E94701E0E94E11E58
:102BB0002FEF81EE94E0215080409040E1F700C07B
:102BC000000083E5E5CF8438A1F40E94DC1382FD88
:102BD00052C087E40E94701E0E94E11E2FEF81EE1A
:102BE00094E0215080409040E1F700C0000087E46D
:102BF000CFCF8CEF8C0F813AB8F48C2F0E945E0DF2
:102C0000811139C06C2F80910001909101010E94C7
:102C10000320882329F08C2F0E94771E0E94E11E3A
:102C20008C2F0E94701EB6CF80E28C0F883048F443
:102C3000C77081E001C0880FCA95EAF70E94981E0C
:102C4000A9CFEBE5EC0FE33040F4F0E0E958FE4F9C
:102C5000808190E0CF910C944314C85AC73158F446
:102C6000EC2FF0E0EE0FFF1FE75BFE4F80819181BC
:102C7000CF910C945914CF910895882309F44BC037
:102C8000823871F40E94DC1381FF45C089E30E9401
:102C9000701E0E94E11E89E30E94771E0C94E11EC3
:102CA000833859F40E94DC1380FF35C083E50E940D
:102CB000701E0E94E11E83E5EFCF843859F40E9414
:102CC000DC1382FF28C087E40E94701E0E94E11E70
:102CD00087E4E2CF9CEF980F913AF0F290E2980FE0
:102CE000983050F4877091E001C0990F8A95EAF707
:102CF000892F0E949E1ED2CF9BE5980F933020F41F
:102D000090E080E00C944314885A873120F490E0DE
:102D100080E00C94591408951F93CF93DF93182FDC
:102D2000EB010E94AE15209731F4812FDF91CF91F6
:102D30001F910C943D168FE99FE00197F1F700C0B9
:102D400000002197F0CF70E060E0893311F460E576
:102D500070E00C948C16882321F00E94981E0C942D
:102D6000E11E0895882321F00E949E1E0C94E11E0E
:102D70000895BF92CF92DF92EF92FF920F931F932D
:102D8000CF93DF936C01D62FC72FFC0112810581F1
:102D900002950F700E948E1EE82E8823A1F0E12E6E
:102DA000112389F08C2F807F803429F080E28D0FF1
:102DB000E12C883040F082E00E942C1F0E948E1E81
:102DC00091E0E82EE926BC2EB2949FE0B922EB2DCB
:102DD000F0E0EC50F64D0C9451290C2F0F70C07F91
:102DE00011F00295007F1123A9F0002359F080E231
:102DF0008D0F883010F0D11109C0802F0E94981ECD
:102E00000E94E11E8D2F0E94AE1514C0802F0E94DB
:102E1000A81EF6CF8D2F0E943D16002359F080E2A8
:102E20008D0F883010F0D1112CC0802F0E949E1E73
:102E30000E94E11E2B2D2850330B2430310520F445
:102E40000E94DC130E94C007EE2009F493C10E9487
:102E50008A1E80FD8FC1F60112820E94841E0E948C
:102E60000F1DC6010E94DB180E94841EDF91CF91C6
:102E70001F910F91FF90EF90DF90CF90BF900C9437
:102E8000301D802F0E94AE1ED3CFFC2FFF70FF2E6F
:102E9000C07FC03219F0F29480EFF822DD2369F090
:102EA000D13049F1112391F1002351F1F6018581CF
:102EB00080FFA8CF8F70858323C0112381F001117B
:102EC00006C00E94C81E8F290E94AB16B3CF0130E6
:102ED000C1F70E94C81E8F290E94CE1EABCF0111E0
:102EE00006C00E94D71E8F2D0E94B216A3CF0130BC
:102EF00009F4A0CFF6CF112329F0063008F09ACFBD
:102F00008F2DE2CF053008F095CFEDCF002359F398
:102F1000D93349F4FFEF27EE33E0F1502040304041
:102F2000E1F700C000008D2F0E943D1683CF8C2F4B
:102F300086958695837069F0813009F07BCF8D2F5F
:102F40009C2F9370111102C090E080E00E945914F0
:102F500071CF8D2F9C2F9370111102C090E080E0F3
:102F60000E94431467CF8C2F837009F041C0111168
:102F700061CF4D2F429546954770440F440F0D2F5A
:102F80000F7010E030E020E0042E04C0000F111F8D
:102F9000221F331F0A94D2F760E070E0CB01D4FF08
:102FA0000FC06FE070E080E090E004C0660F771F14
:102FB000881F991F4A95D2F76095709580959095D6
:102FC000C695C695C370602B712B822B932BC23094
:102FD00049F058F4C13019F00E94C11C2BCF0E9457
:102FE000AF1C28CF0E94D31C25CF0E94AD1C22CF3E
:102FF0008695112311F08C2F8170882309F41ACF44
:103000004D2F429546954770440F440F0D2F0F707A
:1030100010E030E020E0042E04C0000F111F221F3A
:10302000331F0A94D2F760E070E0CB01D4FF0FC0E9
:103030006FE070E080E090E004C0660F771F881FAB
:10304000991F4A95D2F76095709580959095C69591
:10305000C695C370602B712B822B932BC23049F025
:1030600058F4C13019F00E94861DE4CE0E94741DF0
:10307000E1CE0E94981DDECE0E94E91CDBCECF700F
:10308000112329F08C2F0E940F1D8D2F1DCF8D2F06
:103090000E94B2168C2F0E94301DCCCED23F89F1F7
:1030A00060F4D03FC9F0D13F29F1112309F442C0A7
:1030B0000111A8CE8C2F8F7121C0D33F39F1D43F9D
:1030C000A1F7112369F1CF718C2F0E940F1D63E0CE
:1030D0008C2F0E94171FAECE112341F0053008F04F
:1030E000A9CE8C2F8F710E94531DA4CE063008F0FC
:1030F000A1CEF7CF8C2F8F71112369F20E940F1D83
:1031000099CE8C2F8F711123C9F3C5CF112329F0CC
:103110008C2F8F710E94FA1C8DCE0E94F51C8ACED6
:1031200081E00E942C1F023008F484CE82E00E94CD
:103130002C1F80CE002359F0D93309F0F4CE8FEF45
:1031400097EEE3E081509040E040E1F7EACE8C2F2B
:103150008F71A1CF4C2F4F706D2FC6010E94C807F1
:103160000E94251C67CE4C2F4F706D2FC6010E9408
:10317000CB0760CEDF91CF911F910F91FF90EF9021
:10318000DF90CF90BF9008950F931F93CF93DF935D
:10319000EC01688179818A810E944C1E8C010E9419
:1031A000AA1D0E94AC1CB801CE01DF91CF911F91E6
:1031B0000F910C94B916CF93DF93EC018B819C8116
:1031C000892B29F08881998189238F3F59F4DF91D8
:1031D000CF910895CE010E94C418CE01DF91CF9106
:1031E0000C942407CE010E9449078111F3CF0E945D
:1031F0008E1E882361F38A81882349F382E0DF9160
:10320000CF910C942C1F90E080E00E94431490E03A
:1032100080E00E9459140E94B51E0E94C51E0C94A5
:10322000E11E0E947E1E0C9403190E94A51E0C94A0
:103230001119E92FE295EF70E250EE3070F4F0E0F2
:10324000EC5FF54D0C945129803F19F020F4883E35
:1032500020F481E00895843FE1F380E00895883E02
:10326000C0F3813FD1F7F5CF93FB882780F908950C
:103270000E94421E0C941919CF93DF9300D000D006
:103280000F92CDB7DEB70F900F900F900F900F9069
:10329000DF91CF910895CF93DF9300D000D000D07D
:1032A000CDB7DEB726960FB6F894DEBF0FBECDBF02
:1032B000DF91CF9108951F93CF93DF93C091AF011A
:1032C00016E08091B0018C1304C0DF91CF911F9163
:1032D0000895D0E01C9FF0011D9FF00D1124EF54C4
:1032E000FE4F4081518162817381848195810E946A
:1032F0004B192196C770E5CF4091E1015091E20151
:103300006091E3017091E4018091E5019091E60103
:103310000C944B191F93CF93DF938091E601807F2C
:10332000A9F48091E301882389F08091AF01C091D5
:10333000B0016091E1017091E201A091E401B091CE
:10334000E501D62FD72316E0C81304C0DF91CF9133
:103350001F91089590E0109711F0DF3F19F4019646
:103360008770F2CF189F9001199F300D1124F90139
:10337000EF54FE4F41814713F2CF40814613EFCF08
:1033800042814111ECCF438154814A1B5B0B483C85
:10339000510528F78091E6018F7080618093E601E6
:1033A000F901EA54FE4F80818F708061808381EE45
:1033B00091E00E94DB18DF91CF911F910C945B1973
:1033C000AF92BF92CF92DF92EF92FF920F931F9333
:1033D000CF93DF93CDB7DEB761970FB6F894DEBF1A
:1033E0000FBECDBF8C0185E0F801DE011D96019076
:1033F0000D928A95E1F7F80140815181E28081EEDA
:10340000C82E81E0D82E6091E4017091E50161152C
:10341000710509F461C19091E1012091E201892FC8
:1034200082238F3F09F458C1A380B480F090E30158
:10343000F501E61BF70BFF2009F4FCC08091E601C3
:10344000382F307FE83CF10508F0B2C0311179C067
:10345000FE2C251323C0941321C0E1101FC08F70D0
:1034600080618093E6010E947C19C6010E94DB18EE
:103470008091E601F80185838F2D61960FB6F8944F
:10348000DEBF0FBECDBFDF91CF911F910F91FF9097
:10349000EF90DF90CF90BF90AF900895AB2829F0C8
:1034A000842F85238F3F09F033C180E0F82FF1701E
:1034B000DF2E80FF3CC08091AF012091B00136E04B
:1034C000821315C04D875E878D859E850E94421EA2
:1034D000292F22952F702230F0F0243018F59F709C
:1034E000F1F0F8019581907FD1F4D12C1EC090E0CD
:1034F000389FF001399FF00D1124EF54FE4F618188
:10350000651306C06081641303C062816E110FC031
:1035100001968770D5CF9F7011F0882331F3805EBC
:10352000883018F3C8010E94DB18FD2CA5CFEE20CF
:1035300009F4A2CF8091E60181608093E601F12C2D
:103540009BCF251306C0941304C0F801EE2009F4A4
:103550008DC04D875E878D859E850E943819882392
:1035600019F1EE2009F18091E601803270F020918E
:10357000E1013091E20138872F831986BB86AA8644
:103580008C87CE0107960E94DB1886E0F801A1EE39
:10359000B1E001900D928A95E1F70E948A190E948C
:1035A0007C19FF24F39468CFC8010E94DB18F9CF7F
:1035B000311113C07A2DB98AA88A6E2D89890E948B
:1035C0003C1981EE91E00E94DB1886E0F601119231
:1035D0008A95E9F70E947C19B2CF25130FC0941386
:1035E0000DC0E1100BC0F8018583C8010E94DB18F3
:1035F00086E0F60111928A95E9F73ECF4D875E8706
:103600008D859E850E943819882371F2EE2061F223
:103610008091E601803208F4B8CF2091E101309129
:10362000E2013A8329831B82BD82AC828E83CE0164
:103630000196A9CFE83CF10508F041C0FE2CEE2030
:1036400009F4B2CF25132AC0941328C08091E60153
:1036500080FD1BC0982F907FC1F0F8018583903FBB
:1036600031F0982F907F905F8F70892B8583C801F0
:103670000E94DB1886E0F801A1EEB1E001900D9206
:103680008A95E1F70E947C19F7CE86E0F801A1EE59
:10369000B1E001900D928A95E1F7EECE4D875E87FD
:1036A0008D859E850E94381981116FCF8091E6012A
:1036B00081608093E601C8010E94DB18DDCE7A2D7F
:1036C000B98AA88A6E2D89890E943C1986E0F60184
:1036D00011928A95E9F7D6CFEE2009F465CF4D8790
:1036E0005E878D859E850E943819F82E882309F4FF
:1036F0005BCF86E0F801A1EEB1E001900D928A95D2
:10370000E1F781EE91E00E94A9150E948A19BACFD3
:1037100081E08E25CBCE1F93CF93DF93CDB7DEB75D
:103720002C970FB6F894DEBF0FBECDBF4F835887DE
:1037300069877A878B879C87CE0107960E94E0195C
:10374000882369F08A859B85892B39F04F815885BC
:10375000842F85238F3F09F071C016E05FC086E09B
:10376000FE013796DE01119601900D928A95E1F7E0
:103770008A859B85892B89F38F81988589238F3F43
:1037800061F32091B00130E0C9010196877099275B
:103790004091AF014817190671F40E941519109253
:1037A000B0011092AF0186E0E1EEF1E0DF011D9281
:1037B0008A95E9F7D2CF96E0929FD001939FB00D02
:1037C0001124AF54BE4FFE01319601900D929A958F
:1037D000E1F78093B0010E945B19BFCF819FC001C8
:1037E00011248F549E4F0E94E0198823E9F0E09144
:1037F000AF011E9FF0011124EF54FE4F4081518113
:1038000062817381848195810E944B198091AF01FF
:1038100090E00196877099278093AF018091AF0166
:103820009091B0018913DACF2C960FB6F894DEBFD1
:103830000FBECDBFDF91CF911F91089569857A8525
:103840008B859C850E944B1988CFEF92FF920F9336
:103850001F93CF93DF938C01892B81F0F12CEE2401
:10386000E394E8012196F8018491843770F4843060
:1038700008F05FC08130B1F08230A1F1DF91CF91CB
:103880001F910F91FF90EF900895853709F44CC078
:1038900008F43DC09CE7980F903780F78F770E941F
:1038A0003D1649C00E5F1F4FFE01849190E2980FB4
:1038B000983060F48770FE2D01C0FF0F8A95EAF7FB
:1038C0008F2F0E94B81E0E94E11E02C00E94AE15FA
:1038D0008F2D815030F2EFE9FFE03197F1F700C012
:1038E0000000F7CF0E5F1F4FFE01849190E2980F0A
:1038F000983050F48770FE2D01C0FF0F8A95EAF7CB
:103900008F2F0E94BE1EDFCF0E943D16E1CF0E5FBB
:103910001F4FFE01C491C150D8F28FE99FE001977B
:10392000F1F700C00000F7CF0E5F1F4FFE01F490CB
:10393000CFCF0E94AE158E01CBCF08950C949D1C65
:103940000E949E1C6093F5017093F6018093F7012D
:103950009093F8010C94031908950C94A01C0F93F4
:103960001F930091F5011091F6012091F70130911C
:10397000F801602B712B822B932B1F910F910C94CC
:10398000A01C0F931F930091F5011091F601209157
:10399000F7013091F80160237123822393231F9153
:1039A0000F910C94A01C0F931F930091F50110919F
:1039B000F6012091F7013091F801602771278227E5
:1039C00093271F910F910C94A01C0C949D1C0C9498
:1039D000E51C0E94E71C6093F1017093F201809353
:1039E000F3019093F4010C94031960E070E0CB01B3
:1039F0000C94E91C0F931F9341E050E060E070E0ED
:103A00008A019B0104C0000F111F221F331F8A95DA
:103A1000D2F7C901B8011F910F910C94E91C0F93C3
:103A20001F9341E050E060E070E004C0440F551F78
:103A3000661F771F8A95D2F78091F1019091F2016C
:103A4000A091F301B091F4018A019B01082B192B7D
:103A50002A2B3B2BC901B8011F910F910C94E91C33
:103A60000F931F9341E050E060E070E004C0440F0A
:103A7000551F661F771F8A95D2F7CB01BA01609553
:103A80007095809590950091F1011091F20120912F
:103A9000F3013091F40160237123822393231F915A
:103AA0000F910C94E91C0F931F9341E050E060E0EC
:103AB00070E004C0440F551F661F771F8A95D2F728
:103AC0008091F1019091F201A091F301B091F40184
:103AD0008A019B01082719272A273B27C901B8011A
:103AE0001F910F910C94E91C0F931F930091F1010A
:103AF0001091F2012091F3013091F401602B712BB0
:103B0000822B932B1F910F910C94E91C0F931F9301
:103B10000091F1011091F2012091F3013091F40133
:103B200060237123822393231F910F910C94E91C2E
:103B30000F931F930091F1011091F2012091F30175
:103B40003091F40160277127822793271F910F91ED
:103B50000C94E91C0895E92FEE0F9E0F890F982F02
:103B6000977041E001C0440F9A95EAF786958695D3
:103B7000869595E0899FF0011124E951FE4F30E0D0
:103B800020E070E05191DF011197CB01022E02C0BD
:103B9000969587950A94E2F781708195852784230D
:103BA00085278C932F5F3F4F2530310559F70895B6
:103BB000E92FEE0F9E0F890F982F977086958695A7
:103BC000869525E0829FF0011124E951FE4F50E0D7
:103BD00040E080E0219130E0092E02C03695279523
:103BE0000A94E2F721703327042E01C0220F0A94B1
:103BF000EAF7822B4F5F5F4F4530510559F7089523
:103C0000BF92CF92DF92EF92FF920F931F93CF93C9
:103C1000DF938C01C090F101D090F201E090F301AC
:103C2000F090F4018091F5019091F601A091F701D7
:103C3000B091F801C82AD92AEA2AFB2ACFE1D0E0BC
:103C4000BC2ED701C6010C2E04C0B695A79597953A
:103C500087950A94D2F780FD0EC0219788F7B12C82
:103C60008B2DDF91CF911F910F91FF90EF90DF90FF
:103C7000CF90BF900895B8018C2F0E94E80701975C
:103C800061F3EECFCF93DF93EC010E94001EBE01E3
:103C9000DF91CF910C94E8071F93CF93DF93EB0153
:103CA0009091AE01992331F0CB01DF91CF911F911B
:103CB0000C94421E882379F0CB010E94001E182F1D
:103CC000682FCE010E94AB1DBE01812FDF91CF91E5
:103CD0001F910C94E807CB010E94D81D182FF4CF38
:103CE000682F80910001909101010C94A520682F0C
:103CF00080910001909101010C94B020809100010D
:103D0000909101010C94BB208091F90185958595D6
:103D1000859508958091F901877008959091F90132
:103D2000977081E009F480E0089580911D02089564
:103D300090911D02892B80931D020895809590918A
:103D40001D02982390931D02089510921D0208955C
:103D500090911C02892B80931C020895809590916C
:103D60001C02982390931C02089510921C0208953F
:103D700090911B02892B80931B020895809590914E
:103D80001B02982390931B02089510921B02089522
:103D90008091FA01089508950C94CB1E9091FA0138
:103DA000981721F08093FA010C94CC1E089580910D
:103DB000FA01882329F01092FA0180E00C94CC1EBD
:103DC0000895E0910001F091010180911D0280832E
:103DD000E0910001F0910101808190911C02892BFA
:103DE0008083E0910001F0910101808190911B029C
:103DF000892B80839091FA01992381F0E091000151
:103E0000F09101018081892B808380910001909144
:103E100001010E94EF1F81110E94D71E80910001B5
:103E2000909101010C94E81308950C94141F98E0EC
:103E3000899F90011124622B6093F9010E940F1D4C
:103E40008091F9018595859585950C94151F1092A3
:103E5000F90180E00C94151F9091F9018095892358
:103E60008093F901282F277071F4282F082E000C59
:103E7000330B9217130639F08595859585950E9429
:103E8000301D0C94271F089590E080E00E94652962
:103E900021E08B3E9E4F09F020E0822F089582E0C2
:103EA00090E00C94572983E090E00C945729CF932D
:103EB00084E090E00E945729C82F81E290E00E94A0
:103EC0005729982F8C2FCF910895CF93C92F682F02
:103ED00084E090E00E946B296C2F81E290E0CF910A
:103EE0000C946B29AB01BC018FE090E00C947D2910
:103EF000AB01BC0183E190E00C947D2960E070E0AF
:103F0000CB010C94781F60E070E0CB010E94721F1F
:103F10000C947E1F6BEE7EEF90E080E00E9489297A
:103F200060E082E090E00E946B2960E083E090E036
:103F30000E946B291092F5011092F6011092F70180
:103F40001092F80160E084E090E00E946B2960E04C
:103F500081E290E00E946B2960E085E090E00E94A1
:103F60006B2960E086E090E00E946B296FEF87E0AC
:103F700090E00E946B2940E050E0BA0188E090E0B8
:103F80000E947D2960E08DE090E00E946B2940E076
:103F900050E0BA0188E190E00E947D2960E087E16D
:103FA00090E00E946B2940E050E0BA018CE190E083
:103FB0000E947D2960E080E290E00E946B2940E051
:103FC00050E0BA0188E190E00E947D290C94831FA3
:103FD0000C948A1F682F8EE090E00C946B29FC01F2
:103FE000329680910C01882321F0809154029EE149
:103FF00087FF96E080E0915008F4089521912223F4
:10400000D1F38F5FF8CF662301F120910C012223B9
:10401000F1F02091540227FF1AC0462F469546958D
:1040200046954E3190F4677021E030E002C0220FD7
:10403000331F6A95E2F7840F911DFC01828190E0A5
:104040002823392381E0232B69F480E00895FC01C3
:10405000329608962191261721F0E817F907D1F733
:10406000F4CF81E008959C01FC0132969FEF80E03F
:104070004191461751F09F3F19F4411101C0982F0B
:104080008F5F8630A9F79F3F09F40895290F311DEE
:1040900097FD3A95F90162830895FC0132960896DE
:1040A0002191261303C0DF0111971C92E817F9072D
:1040B000B9F70895E62FE695E695E695EE3170F4AA
:1040C000E80FF92FF11D677021E030E001C0220FE9
:1040D0006A95EAF78281822B8283089580911E027D
:1040E00080FF0CC01F926F9389E29AE09F938F9399
:1040F0000E94D6060F900F900F900F900895E62F14
:10410000E695E695E695EE3178F4E80FF92FF11D86
:10411000677021E030E001C0220F6A95EAF7209530
:10412000828128232283089580911E0280FF0CC083
:104130001F926F938BE09AE09F938F930E94D60615
:104140000F900F900F900F90089520910C01222353
:1041500029F02091540227FD0C945A200C9433200E
:1041600020910C01222329F02091540227FD0C9468
:104170007F200C944D20FC01329680910C01882305
:1041800051F08091540287FF06C08EE1DF011D923D
:104190008A95E9F7089586E0F9CF089508950C947B
:1041A000CE2080915A02843049F10E94CF2080E0D5
:1041B0000E94C00710921F0288E190E020E40FB631
:1041C000F894A895809360000FBE2093600083B799
:1041D000817F846083BF83B7816083BF7894889533
:1041E00083B78E7F83BF0FB6F894A8958091600047
:1041F000886180936000109260000FBE089508955A
:10420000CF930E94CD200E94630A0E94FF20C0E04D
:104210008C2F0E94D409811105C0CF5FC330C1F734
:10422000CF91089581E0FCCF08950C9414210E9451
:1042300015190E94DC130E94C0070C9415211F92CF
:104240001FB61F9211248F939F93AF93BF938091BA
:104250001F02811113C08091500290915102A091D0
:104260005202B09153024196A11DB11D809350029C
:1042700090935102A0935202B0935302BF91AF9119
:104280009F918F911F901FBE1F90189582E084BD53
:1042900093E095BD9AEF97BD80936E0008952FB778
:1042A000F8948091500290915102A0915202B091E5
:1042B00053022FBF08952FB7F89460915002709168
:1042C000510280915202909153022FBF08959C0198
:1042D0004FB7F8948091500290915102A0915202F0
:1042E000B09153024FBF821B930B089578941F9295
:1042F0001FB61F9211248F939F93AF93BF9380910A
:10430000500290915102A0915202B0915302019635
:10431000A11DB11D8093500290935102A0935202AF
:10432000B0935302BF91AF919F918F911F901FBE89
:104330001F90189587E797E79093010880930008EE
:1043400088E19AE00FB6F894A895809360000FBEBC
:1043500090936000FFCF90938B0180938A01089522
:104360000E94441F811102C00E94E81F0E944F1F3B
:1043700080931E020E94571F90935502809354020F
:104380000E94531F682F70E090E080E00E94AD1CF7
:104390006091F1017091F2018091F3019091F4012B
:1043A0000C94E71C8091430208950895CF93DF9306
:1043B00000D00F92CDB7DEB790915A02943019F524
:1043C00089837B836A8382E08093E9008FEF9091F9
:1043D000E800815095FD06C095ED9A95F1F7000033
:1043E0008111F5CF8091E80085FF0DC050E040E0DD
:1043F00063E070E0CE0101960E94A1248091E80064
:104400008E778093E8000F900F900F90DF91CF91FF
:104410000895BC0184E00C94D621BC0183E00C9487
:10442000D621CF93DF93EC0180910C018823B1F169
:104430008091540287FF32C060E282E08093E900FD
:104440008FEF9091E800815095FD06C095ED9A950B
:10445000F1F700008111F5CF8091E80085FF1BC0C6
:1044600080910C0170E050E040E0811104C050E008
:1044700040E068E070E0CE010E94A1248091E80055
:104480008E778093E80080E2FE01A3E2B2E0019023
:104490000D928A95E1F7DF91CF91089568E081E070
:1044A000CDCF8CE69AE00E943D06809159028111A1
:1044B00009C00E9431260E948E268091E20084600D
:1044C0008093E200089588E69AE00E943D061092EB
:1044D0005902089584E69AE00C943D0680E69AE03D
:1044E0000C943D068CE59AE00C943D062091210247
:1044F0002F5F822F62E30E943129992319F02093C4
:104500002102089510922102809122028823F1F065
:1045100080915A028430C1F49091E9009F702091FB
:10452000EC00822F817020FD80E8892B93E090932E
:10453000E9009091EB0090FF04C09091EE0097FD90
:1045400008C08F708093E9001092220208951092A3
:10455000F1009091E80095FDFACF9091E80090FF6E
:10456000F0CF9091E8009E779093E800EACF42E088
:1045700061EC81E00E94AD2542E261EC82E00E94A4
:10458000AD2542E261EC83E00C94AD2580915C02A4
:10459000833009F45FC030F48130C1F1823009F416
:1045A0009BC008958A3009F487C08B3009F46DC030
:1045B000893009F04EC080915B02813209F049C018
:1045C00080915F0290916002029708F042C0809152
:1045D000E800877F8093E8008091E80082FF35C083
:1045E0009091F3008091F200029729F48091F100FC
:1045F0008B7F813021F48091F10080934302809180
:10460000E8008B778093E8000C94E12580915B02B1
:10461000813AF9F48091E800877F8093E8008091E7
:104620005F0290916002892B61F460E283E292E084
:1046300070E00E94F0248091E8008B778093E8007E
:10464000089560E090E080E0F3CF80915A028111FC
:10465000C3CF089580915B02813AD9F780915F02C0
:1046600090916002892BA9F78091E800877F809361
:10467000E8008091E80080FFFCCF80910C018093DE
:10468000F1008091E8008E77BDCF80915B0281328E
:1046900001F780915F0290916002892BD1F68091A1
:1046A000E800877F8093E8000E94E12580915D0209
:1046B00080930C010C94151980915B02813249F6AC
:1046C0008091E800877F8093E8000E94E125809137
:1046D0005E0280934402089580915B02813A09F062
:1046E000B8CF8091E800877F8093E8008091E80050
:1046F00080FFFCCF80914402C2CF9FB7F894109204
:1047000022029FBF90915A02943009F048C0209134
:10471000E9002F703091EC00932F917030FD90E8FC
:10472000922B23E02093E9002091EB0020FF34C07E
:104730002091EE0027FF30C020912002222321F09B
:104740002091E80025FF28C01092200226E0309139
:10475000E80035FF14C08093F1008091E80085FDEA
:1047600027C08091E80080FFFCCF8091E8008E7721
:104770008093E8009F709093E90080E00895309165
:104780005A02343049F43091EB0035FD05C0215018
:1047900041F481E0809320029F709093E9008FEFB5
:1047A0000895EFE9FFE03197F1F700C00000CFCFA7
:1047B0008FB7F89421E0209322028FBFDBCF84B71C
:1047C000877F84BF0FB6F894A895809160008861B8
:1047D00080936000109260000FBE80E890E00FB6FA
:1047E000F89480936100909361000FBE0E94901432
:1047F0000E9431260E948E268091E2008460809380
:10480000E20078940E9416290E94A01482E091E0B0
:104810000E94D7138BE49AE00E943D0680915A02D1
:10482000853051F487E49AE00E943D0680915A0257
:10483000853049F00E9417210E94D2140E949E14D4
:104840000E949F14EBCF0E94D120809158028823B0
:1048500069F30E940021882349F30E948B240E945F
:104860001519E4CF0C943424292F33272330310534
:1048700021F168F42130310509F443C022303105BB
:1048800009F444C090E080E030E020E026C021320E
:10489000310551F122323105A9F76330710590F7E6
:1048A000FB01EE0FFF1FE358FE4F20813181665858
:1048B0007E4FFB01808190E010C0992781309105E7
:1048C00081F0009729F00297E9F6E0E7FAE002C0EC
:1048D000E0E9FAE0849190E09F01FA0131832083BE
:1048E0000895E0E8FAE0F6CF6330710558F6660FF8
:1048F000771FFB01ED57FE4F2081318189E090E069
:10490000ECCF82E190E02FEE3AE0E7CF8BE590E04C
:1049100024E93AE0E2CF80E189BD82E189BD09B4B2
:1049200000FEFDCF8091D8008F7D8093D8008091CC
:10493000E00082608093E0008091E00081FDFCCF88
:104940000895AF92BF92CF92DF92FF920F931F9381
:10495000CF93DF936C01EB018A010E940026F82EB1
:10496000811123C00115110539F0F8018081918171
:10497000C81BD90BC80ED91EB12CA12C2097A9F0A9
:104980008091E80085FD22C08091E8008E778093B9
:10499000E80001151105A1F0F80180819181A80EB0
:1049A000B91EB182A08285E0F82E8F2DDF91CF91C4
:1049B0001F910F91FF90DF90CF90BF90AF9008951F
:1049C0000E9400268823D1F2F82EEFCFF6018191C4
:1049D0006F018093F1002197FFEFAF1ABF0ACECF8E
:1049E000FC01809161029091620286179707A0F006
:1049F0006115710529F49091E8009E779093E80085
:104A000090E06115710551F4911108C08091E800A2
:104A100082FF34C080E00895BC01F2CF80915A0239
:104A20008823C1F18530C1F18091E80083FD30C059
:104A30008091E80082FDEACF8091E80080FFE1CF1D
:104A40008091F3002091F200382F6115710519F063
:104A50002830310558F091E02830310509F090E018
:104A60002091E8002E772093E800CBCF81918093AE
:104A7000F100615071092F5F3F4FE7CF80915A02DB
:104A8000882341F0853041F08091E80083FFBECF5C
:104A900081E0089582E0089583E00895FC0180910B
:104AA00061029091620286179707A0F06115710567
:104AB00029F48091E8008E778093E80090E06115FA
:104AC000710551F4911108C08091E80082FF35C052
:104AD00080E00895BC01F2CF80915A028823C9F189
:104AE0008530C9F18091E80083FD31C08091E800F4
:104AF00082FDEACF8091E80080FFE1CF8091F30052
:104B00002091F200382F6115710519F02830310518
:104B100058F091E02830310509F090E08091E800EC
:104B20008E778093E800CBCF84918093F10031960B
:104B3000615071092F5F3F4FE6CF80915A02882361
:104B400041F0853041F08091E80083FFBDCF81E0E6
:104B5000089582E0089583E00895982F973028F013
:104B60008F708093E90081E008959093E900242FED
:104B7000762F50E0981731F07091EC002091ED0005
:104B80005091F00021FD02C09F5FE8CF3091EB0013
:104B90003E7F3093EB003091ED003D7F3093ED0090
:104BA0003091EB0031603093EB007093EC00209378
:104BB000ED005093F0002091EE0027FDE5CF80E05E
:104BC000089580915B0287FF13C08091E80082FF07
:104BD00006C08091E8008B778093E80004C0809144
:104BE0005A028111F2CF089580915A028823D9F395
:104BF0008091E80080FFF8CF8091E8008E77ECCFBD
:104C00002091E4003091E50095E6A9012091EC00A7
:104C1000822F817020FF06C08091E80080FF06C0CF
:104C200080E008952091E80022FD1AC080915A0288
:104C3000882389F0853089F08091EB0085FD0FC0D5
:104C40002091E4003091E50042175307F9F29150AA
:104C5000E1F684E0089582E0089583E0089581E01C
:104C600008950E949F260E94A726E0EEF0E0808132
:104C700081608083E8EDF0E080818F77808319BCCC
:104C8000A7EDB0E08C918E7F8C9380818F7E8083A6
:104C90001092590208950F931F93CF93DF930E94B0
:104CA0009F260E94A726C8EDD0E088818F77888351
:104CB00088818068888388818F7D888319BC109261
:104CC0005A0210925602109258021092570200EEA9
:104CD00010E0F80180818B7F8083888181608883E8
:104CE00042E060E080E00E94AD25E1EEF0E08081EE
:104CF0008E7F8083E2EEF0E080818160808380811E
:104D000088608083F80180818E7F808388818061C4
:104D10008883DF91CF911F910F910895E8EDF0E026
:104D200080818F7E8083E7EDF0E0808181608083E9
:104D300084E082BF81E0809359020C944B26E8ED19
:104D4000F0E080818E7F80831092E20008951092BF
:104D5000DA001092E10008951F920F920FB60F92A1
:104D600011242F933F934F935F936F937F938F9370
:104D70009F93AF93BF93EF93FF938091E10082FFE6
:104D80000BC08091E20082FF07C08091E1008B7F21
:104D90008093E1000E9476228091DA0080FF19C0A2
:104DA0008091D80080FF15C08091DA008E7F8093BB
:104DB000DA008091D90080FF96C080E189BD82E150
:104DC00089BD09B400FEFDCF81E080935A020E94A4
:104DD00051228091E10080FF19C08091E20080FFA4
:104DE00015C08091E2008E7F8093E2008091E20006
:104DF00080618093E2008091D80080628093D80027
:104E000019BC85E080935A020E946E228091E100D5
:104E100084FF2BC08091E20084FF27C080E189BD20
:104E200082E189BD89B5982F917080FFFBCF809179
:104E3000D8008F7D8093D8008091E1008F7E809391
:104E4000E1008091E2008F7E8093E2008091E20099
:104E500081608093E20080915602882309F449C062
:104E600084E080935A020E9472228091E10083FFC5
:104E700029C08091E20083FF25C08091E100877FF7
:104E80008093E10082E080935A0210925602809152
:104E9000E1008E7F8093E1008091E2008E7F80931D
:104EA000E2008091E20080618093E20042E060E0F5
:104EB00080E00E94AD258091F00088608093F00032
:104EC0000E946A22FF91EF91BF91AF919F918F91C4
:104ED0007F916F915F914F913F912F910F900FBEF6
:104EE0000F901F90189519BC10925A020E946322CD
:104EF00070CF8091E30087FD93E090935A02B3CF87
:104F00001F920F920FB60F9211242F933F934F933E
:104F10005F936F937F938F939F93AF93BF93CF9341
:104F2000DF93EF93FF93D091E900DF708091EC0065
:104F3000C82FC17080FDC0E81092E9008091F00098
:104F4000877F8093F00078940E94C4271092E90034
:104F50008091F00088608093F000CD2BCF70C093DB
:104F6000E900FF91EF91DF91CF91BF91AF919F91B8
:104F70008F917F916F915F914F913F912F910F9002
:104F80000FBE0F901F9018951F93CF93DF93CDB74F
:104F9000DEB7AA970FB6F894DEBF0FBECDBF8BE584
:104FA00092E02091F100FC012193CF01F2E08336E1
:104FB0009F07B9F70E94C6228091E80083FF1EC1B7
:104FC00080915B0290915C029A3008F017C1E92F42
:104FD000F0E0EE5EF54D0C945129803899F082385E
:104FE00009F00CC180915F028F70873008F006C114
:104FF0008093E9008091EB0085FB882780F910926F
:10500000E90006C080915702909158029111826088
:105010009091E800977F9093E8008093F1001092C0
:10502000F1008091E8008E77E5C0882309F4D3C0B1
:10503000823009F0E3C080915D028111D6C0809179
:105040005F028F702FEF280F263008F0D7C08093B3
:10505000E9002091EB0020FFC8C0933031F480912B
:10506000EB0080628093EB00C0C09091EB009061F8
:105070009093EB0021E030E001C0220F8A95EAF71F
:105080002093EA001092EA008091EB008860EACF5A
:105090008111B4C010915D021F778091E300807888
:1050A000812B8093E3008091E800877F8093E80064
:1050B0000E94E1258091E80080FFFCCF8091E30011
:1050C00080688093E30082E0111183E080935A02AC
:1050D00095C08058823008F091C080915D02909117
:1050E0005E028C3D23E09207A1F583E08A838AE289
:1050F00089834FB7F894DE01139620E03EE051E239
:10510000E32FF0E050935700E49120FF03C0E295B5
:10511000EF703F5FEF708E2F90E0EA30C0F0C796DF
:105120008D939D932F5F243159F74FBF8091E800F5
:10513000877F8093E8006AE270E0CE0101960E94CA
:10514000F0248091E8008B778093E80057C0C096E8
:10515000E7CF60915F0270916002AE014F5F5F4FD9
:105160000E943224BC01892B09F448C09091E800C8
:10517000977F9093E80089819A810E944E25E1CF24
:105180008038E1F58091E800877F8093E800809186
:1051900056028093F10045CF811130C090915D029D
:1051A000923060F58091E800877F8093E8009093CB
:1051B00056020E94E12580915602882311F084E076
:1051C00005C08091E30087FDFACF81E080935A0209
:1051D0000E94B72213C080915D02813079F481E092
:1051E000933009F080E0809358021092E90080919A
:1051F000E800877F8093E8000E94E1258091E80025
:1052000083FF0AC08091E800877F8093E800809147
:10521000EB0080628093EB00AA960FB6F894DEBF95
:105220000FBECDBFDF91CF911F910895CF93809195
:105230005A028823A1F0C091E900CF709091EC0050
:10524000892F817090FD80E8C82B1092E900809131
:10525000E80083FD0E94C427CF70C093E900CF917E
:105260000895991B79E004C0991F961708F0961BC2
:10527000881F7A95C9F780950895AA1BBB1B51E139
:1052800007C0AA1FBB1FA617B70710F0A61BB70BB6
:10529000881F991F5A95A9F780959095BC01CD015B
:1052A0000895EE0FFF1F0590F491E02D0994F999F0
:1052B000FECF92BD81BDF89A992780B50895A6E1E9
:1052C000B0E044E050E00C949129A8E1B0E042E065
:1052D00050E00C949129262FF999FECF92BD81BD03
:1052E000F89A019700B4021639F01FBA20BD0FB624
:1052F000F894FA9AF99A0FBE08950396272F0E9400
:105300006C290E946B29252F0E946C29242F0C9454
:105310006C290196272F0E946C290C946B29DC01C3
:10532000CB01FC01F999FECF06C0F2BDE1BDF89AB0
:10533000319600B40D9241505040B8F70895F8945A
:10534000FFCF900C7D0C970C190B540D540D780C5D
:10535000540D540DC30C540DD30C3A0D540D540D73
:10536000540D540DF60C540D540DE30C540DAE0CAD
:10537000540D540D520D520D520D520D520D520D31
:10538000520D520D520D4C0D540D900C710C540DCC
:10539000540D540D540D540D540D540D540D540D05
:1053A000540D4C0D540D540D780C540D500D500DE2
:1053B000500D500D500D500D500D500D500D4C0D09
:1053C0005E1166116D11721177117C1181118611B8
:1053D0008B11901195119A1160116011601160117B
:1053E0006011601160116011ED16ED16451745173B
:1053F00097171A171A171A17B3173F184E184E187F
:10540000AA181A171A17B318241924192D192D19A7
:105410002F192D192D192D192419241934192D1965
:105420002D193419ED271528FE281528FE2848289F
:085430006928FE28C028CC28E1
:10543800FB01D2211122D5210D22092201E200E926
:1054480000EA00B500B600B700CD008301CC008AA1
:105458000192019401210223022402250226022737
:10546800022A02B300B4006F00700081828397C6DD
:105478003435F7313332360001E200E900EA00B58D
:1054880000B600B700CD008301CC008A01920194D8
:10549800012102230224022502260227022A02B33E
:1054A80000B4006F007000818283406D22900B234E
:0A54B8000B010BA60ABF0AD80A0078
:00000001FF
