:100000000C94F9050C9440060C9440060C944006A0
:100010000C9440060C9440060C9440060C94400648
:100020000C9440060C9440060C94B9260C948D2731
:100030000C942C210C9440060C9440060C94400621
:100040000C9440060C9440060C9440060C94400618
:100050000C9440060C9483210C9440060C944006AA
:100060000C9440060C9440060C9440060C944006F8
:100070000C9440060C9440060C9440060C944006E8
:100080000C9440060C9440060C9440060C944006D8
:100090000C9440060C9440060C9440060C944006C8
:1000A0000C9440060C9440060C9440061150040039
:1000B000050006000700080009000A000B000C00FC
:1000C0000D000E000F0010001100120010503A0039
:1000D0003B003C003D003E003F004000410042002C
:1000E000430044004C00AC00AE00AB004445425518
:1000F000473A2064697361626C65642E0A00444566
:100100004255473A20656E61626C65642E0A000AAA
:100110000025303862003A200025303258000A723B
:100120002F632030313233343536370A003F0043F5
:100130003E20004C25640A0074696D65725F72652B
:100140006164333228293A202530346C580A006B18
:1001500065796D61705F636F6E6669672E6E6B7235
:100160006F3A2025580A006B6579626F6172645F8F
:1001700069646C653A2025580A006B6579626F6185
:1001800072645F70726F746F636F6C3A2025580AE7
:1001900000686F73745F6B6579626F6172645F6C26
:1001A00065647328293A2025580A000A092D20532E
:1001B0007461747573202D0A004743433A20382E2A
:1001C000342E30204156522D4C4942433A20322E93
:1001D000302E30204156525F415243483A206176DA
:1001E00072350A004F5054494F4E533A204C5546F1
:1001F000412045585452414B455920434F4E534F8F
:100200004C4520434F4D4D414E44204E4B524F20C4
:10021000343039360A004255494C443A20202841AE
:1002200075672031302032303231290A0056494476
:100230003A20307835333432284C6F6E6775732925
:10024000205049443A20307833323235285175698C
:10025000726B50616429205645523A203078303014
:1002600030310A000A092D2056657273696F6E20BD
:100270002D0A000A092D20436F6E736F6C65202DC7
:100280000A4553432F713A09717569740A000A09C6
:100290002D204D61676963202D0A443A0944656247
:1002A0007567204D65737361676520546F67676C70
:1002B000650A583A094D617472697820446562751F
:1002C00067204D6F646520546F67676C65202D2033
:1002D00053686F77206B65797072657373657320EF
:1002E000696E206D617472697820677269640A4B67
:1002F0003A094B6579626F61726420446562756783
:1003000020546F67676C65202D2053686F77206BD2
:1003100065797072657373207265706F72740A4DBF
:100320003A094465627567204D6F75736520546F97
:1003300067676C650A563A0956657273696F6E0A8B
:10034000533A095374617475730A433A09416374EB
:10035000697661746520436F6E736F6C65204D6FB5
:1003600064650A46312D4631303A09537769746322
:100370006820746F204C6179657220302D392028F7
:10038000463130203D204C30290A302D393A09536E
:10039000776974636820746F204C617965722030CE
:1003A0002D390A47524156453A09537769746368B3
:1003B00020746F204C6179657220302028616C7444
:1003C00065726E617465290A423A094A756D70203A
:1003D000746F20426F6F746C6F616465720A45536D
:1003E000433A094A756D7020746F20426F6F746CC8
:1003F0006F616465722028616C7465726E617465EA
:10040000290A453A095072696E7420454550524F89
:100410004D2053657474696E67730A4253504143AB
:10042000453A09436C65617220454550524F4D0A6B
:100430004E3A094E4B524F20546F67676C650A0065
:100440000A002575002E6E6B726F3A20000A002597
:1004500075002E737761705F6261636B736C61739B
:10046000685F6261636B73706163653A20000A00C4
:100470002575002E737761705F67726176655F65C1
:1004800073633A20000A002575002E6E6F5F677552
:10049000693A20000A002575002E737761705F723B
:1004A000616C745F726775693A20000A00257500F7
:1004B0002E737761705F6C616C745F6C6775693AFD
:1004C00020000A002575002E737761705F726374D7
:1004D0006C5F726775693A20000A002575002E73FB
:1004E0007761705F6C63746C5F6C6775693A20004C
:1004F0000A002575002E636170736C6F636B5F7407
:100500006F5F636F6E74726F6C3A20000A0025751E
:10051000002E737761705F636F6E74726F6C5F63D0
:100520006170736C6F636B3A20000A00253032589B
:10053000006B65796D61705F636F6E6669672E72BF
:1005400061773A20000A002575002E6D6F7573657E
:100550003A20000A002575002E6B6579626F617282
:10056000643A20000A002575002E6D617472697866
:100570003A20000A002575002E656E61626C653AAE
:1005800020000A00253032580064656275675F6399
:100590006F6E6669672E7261773A20000A002575D2
:1005A0000064656661756C745F6C617965723A2090
:1005B000003F004E4B524F3A206F66660A004E4B8A
:1005C000524F3A206F6E0A000A6D6F7573653A20BC
:1005D0006F66660A000A6D6F7573653A206F6E0A62
:1005E000000A6B6579626F6172643A206F66660A11
:1005F000000A6B6579626F6172643A206F6E0A005F
:100600000A6D61747269783A206F66660A000A6D35
:1006100061747269783A206F6E0A000A64656275C7
:10062000673A206F66660A000A64656275673A2059
:100630006F6E0A000A0A4A756D70696E6720746FE2
:1006400020626F6F746C6F616465722E2E2E2000B5
:10065000433E2000436C656172696E6720454550DA
:10066000524F4D0A006565636F6E6669673A0A000E
:100670007267626C6967687420736574206873764A
:10068000205B4E4F454550524F4D5D3A2025752C0D
:1006900025752C25750A007267626C69676874207D
:1006A00073657420687376205B454550524F4D5DED
:1006B0003A2025752C25752C25750A007267626C09
:1006C000696768742064697361626C65205B454585
:1006D00050524F4D5D3A207267626C696768745F73
:1006E000636F6E6669672E656E61626C65203D2082
:1006F00025750A007267626C6967687420656E61AF
:10070000626C65205B454550524F4D5D3A207267E3
:10071000626C696768745F636F6E6669672E656E89
:1007200061626C65203D2025750A007267626C6904
:1007300067687420746F67676C65205B454550522D
:100740004F4D5D3A207267626C696768745F636FD2
:100750006E6669672E656E61626C65203D20257549
:100760000A007267626C69676874206D6F64652047
:100770005B4E4F454550524F4D5D3A2025750A005E
:100780007267626C69676874206D6F6465205B4591
:100790004550524F4D5D3A2025750A007267626CD4
:1007A000696768745F696E6974207267626C6967F3
:1007B00068745F636F6E6669672E6D6F6465203D58
:1007C00020302E2057726974652064656661756CEF
:1007D000742076616C75657320746F2045455052A6
:1007E0004F4D2E0A007267626C696768745F696EAC
:1007F0006974206565636F6E666967206973206E32
:100800006F7420656E61626C65642E0A00726762A7
:100810006C696768745F696E69742073746172745F
:10082000210A007267626C696768745F696E697437
:100830002063616C6C65642E0A007267626C696784
:1008400068745F636F6E6669672E73706565642098
:100850003D2025640A007267626C696768745F6393
:100860006F6E6669672E76616C203D2025640A00F4
:100870007267626C696768745F636F6E6669672E22
:10088000736174203D2025640A007267626C696799
:1008900068745F636F6E6669672E687565203D20BA
:1008A00025640A007267686C696768745F636F6EBD
:1008B0006669672E6D6F6465203D2025640A0072AD
:1008C00067626C696768745F636F6E6669672E65DF
:1008D0006E61626C65203D2025640A007267626C5F
:1008E000696768745F636F6E66696720454550523B
:1008F0004F4D3A0A0000010101010101010101020D
:1009000002020202020202020303030303030303BF
:10091000040404040404040505050505060606068A
:1009200006070707070708080808090909090A0A46
:100930000A0B0B0B0C0C0C0D0D0D0E0E0E0F0F0FEA
:100940001010111111121213131414151516161775
:1009500017181819191A1A1B1B1C1D1D1E1E1F20E3
:1009600020212222232424252626272829292A2B30
:100970002C2D2D2E2F303132323334353637383955
:100980003A3B3C3D3E3F404142434445464748494F
:100990004A4C4D4E4F50515354555658595A5B5D21
:1009A0005E5F616264656668696B6C6D6F707273BF
:1009B0007577787A7B7D7E8082838587888A8C8E26
:1009C0008F91939596989A9C9EA0A2A3A5A7A9AB58
:1009D000ADAFB1B3B5B7BABCBEC0C2C4C6C9CBCD4A
:1009E000CFD1D4D6D8DBDDDFE2E4E7E9EBEEF0F3FC
:1009F000F5F8FAFDFF0A002530325820006B6579C2
:100A0000626F6172645F7265706F72743A20000A7F
:100A10000025303258006B6579626F6172645F73D4
:100A200065745F6C65643A200064656C5F6B657922
:100A30005F6269743A2063616E27742064656C3A62
:100A400020253032580A006164645F6B65795F620B
:100A500069743A2063616E2774206164643A2025CA
:100A60003032580A005B735D004B6579626F6172CA
:100A7000642073746172742E0A005B575D005B53CF
:100A80005D005B525D005B445D005B435D001203F3
:100A900051007500690072006B0050006100640035
:100AA00000000E034C006F006E00670075007300BD
:100AB00000000403090409025B00030100A0FA0915
:100AC000040000010301010009211101000122407D
:100AD000000705810308000A090401000103000062
:100AE00000092111010001226D0007058203200089
:100AF0000A0904020002030000000921110100019B
:100B000022220007058303200001070503032000BC
:100B100001120110010000000842532532010001BA
:100B20000200010631FF0974A1010975150026FFB5
:100B3000009520750881020976150026FF00952092
:100B400075089102C005010980A101850319012AD8
:100B5000B700150126B700950175108100C0050C7E
:100B60000901A101850419012AA002150126A0028C
:100B7000950175108100C005010906A101850505D3
:100B80000719E029E715002501950875018102057F
:100B900007190029EF1500250195F075018102055F
:100BA00008190129059505750191029501750391B3
:100BB00001C005010906A101050719E029E7150093
:100BC00025019508750181029501750881010507C8
:100BD000190029FF150026FF0095067508810005FC
:100BE0000819012905950575019102950175039173
:100BF00001C011241FBECFEFDAE0DEBFCDBF04B6C7
:100C000003FE27C080916C0290916D02A0916E024C
:100C1000B0916F028730904BA740B04BD1F4109247
:100C20006C0210926D0210926E0210926F0214BE4E
:100C300084B7877F84BF0FB6F894A8958091600031
:100C4000886180936000109260000FBEE0E0F8E3DE
:100C5000099511E0A0E0B1E0E2E5F4E502C00590FD
:100C60000D92A039B107D9F722E0A0E9B1E001C0A7
:100C70001D92AC36B207E1F70E94EC230C94AC292C
:100C80000C940000FF93EF93E0919001F09191019B
:100C9000309709F00995EF91FF910895FC01859136
:100CA000803011F0EFDFFBCF0895FF27E0E230E264
:100CB00047FF0CC0419597FF09C0EDE26095709524
:100CC00080959095611D711D811D911D27FF02C0AA
:100CD000219530E350E2AA27660F771F881F991FDE
:100CE000AA1FA41710F0A41B63955A95A9F7AA3060
:100CF00008F0A95FA05DAF93F395611571058105BB
:100D0000910541F7ED3211F4EF93F395F21718F4D2
:100D10003F93F395FBCF8F91B5DFFA95E1F70895F7
:100D2000E991F9918591803021F0853219F0AADF9F
:100D3000F9CF089520E0E89455915532C1F350332E
:100D400011F4689455915A3348F4505390F3220F9C
:100D5000022E220F220F200D250FF4CF0EF4219525
:100D600089919991533619F3533729F1533559F134
:100D7000BC0188279927E8945C3621F489919991E0
:100D800068945591543639F446EF7EF077FF0DC0E4
:100D90008FEF9FEF0AC055374AE039F0583540E1F0
:100DA00021F0523642E009F00895FF93EF937DDF82
:100DB000EF91FF91B7CFFF93EF93FC0181918030CA
:100DC000B9F360DFFBCFFF93EF9368DFF1CFDF93E1
:100DD000CF93CDB7DEB72596A3DFCF91DF910895EE
:100DE00081E0089581E008950C94F20608950C9432
:100DF000F6061F93CF93DF9300D000D00F92CDB7AC
:100E0000DEB749835A836B833091B50189819A811A
:100E100031111DC06623B9F02223A9F00E940D1ED6
:100E2000182F682F89819A810E94BA1D69817A8161
:100E3000812F0F900F900F900F900F90DF91CF9117
:100E40001F910C94DD070E94E61D182FEFCF0E9422
:100E50000D1E69817A81EDCFFC01262F40815181E1
:100E60006281738184810C94F906CF93DF93EC0146
:100E700060E00E942C07BE01DF91CF910C94F70631
:100E80000E94511F811102C00E94F51F0C94E009BD
:100E90000C94E30908950E9424190E944A072FEF39
:100EA00084E39CE0215080409040E1F700C00000C6
:100EB0000C94A7210F931F93CF93DF93EC0161E074
:100EC0000E942C078C01BE010E94F406882341F188
:100ED000BE01C8010E944D12882311F1BE01C80154
:100EE0000E949F128823E1F0BE01C8010E94C21334
:100EF0008823B1F0BE01C8010E945D11882381F0F2
:100F00008A81882341F101308CE5180779F00F3D83
:100F10008CE51807E9F001151C45E9F40E944B0720
:100F200080E0DF91CF911F910F910895909125025C
:100F3000892F8E7F90FF81608093250280FF05C0FE
:100F40008EEF90E00E944E06EBCF8CEE90E0FACF51
:100F50000E94F51FE5CFCE01DF91CF911F910F9138
:100F60000C94F006829590E09C01220F331F220F13
:100F7000331F2C7C95958795959587958373282BA2
:100F800030E0C901880F991F8A7A35952795257514
:100F9000822B089508950C94CA0781E008950C945B
:100FA000CD07CF93C82F0E94CB078C2FCF910C94E5
:100FB000CF0790E080E00895089524E0829FC0016B
:100FC0001124FC01E70FF11DEE0FFF1FEE0FFF1FB5
:100FD000E60FF11DEE0FFF1FE455FF4F8591949131
:100FE0000895FC01EE0FFF1FE15FFE4F8591949184
:100FF0000895CF93DF930E94DD070E940509EC015D
:10100000811520E5920708F041C0811530E493076F
:1010100008F0B4C0803E910518F5803C910508F0B9
:101020009DC0883A910570F4853A910508F08EC00C
:1010300081309105F9F00097E9F00497D8F4D0E0F9
:10104000C0E018C08F3B9105D0F7C85AD0E0CC0F54
:10105000DD1FC35FDE4F0990D881C02DD4640AC064
:101060008115904258F4C11581E0D80718F4C83EA4
:10107000D10528F7CE01DF91CF910895C11590E3F6
:10108000D90708F071C0CE019F706AC0811525E5AF
:10109000920758F5811534E5930708F09EC0811535
:1010A00042E5940750F4C11581E5D80708F469C0FA
:1010B000DC2FCC27C16FD06ADDCF982F96959695FF
:1010C0009E0123703327C115D34508F077C0C1E0D6
:1010D000D0E002C0CC0FDD1F2A95E2F720E2929FFC
:1010E000C0011124C82BD92B67C0C11589E5D807C9
:1010F000A8F4C11598E5D90708F074C0C11526E514
:10110000D20708F09CCF8C2F0E949C09C82FD0E0FA
:10111000DC2FCC27CC27DF71D062ACCFC1153AE5EC
:10112000D30708F464C0CE0190568115904208F0B0
:1011300086CF8D2F8F710E949C0990E0982F882771
:1011400088279F719C012C2BE901E6CFC55AD0E07E
:10115000C55CDE4FC881D0E0D0648CCF805C910943
:101160000E94F107EC0186CFCE019927D3FF03C07F
:10117000EC01D86C7FCFEC01D06C7CCFDF70D06AF3
:1011800079CFCE01E4E096958795EA95E1F78370F3
:101190002C2F26952695237090E2299F90011124EB
:1011A000382B8C2F8370C1E0D0E002C0CC0FDD1F44
:1011B0008A95E2F7C22BD32BDC685CCFC1E0D0E08C
:1011C00002C0CC0FDD1F2A95E2F730E2939FC001E9
:1011D0001124C82BD92BDA684DCFD82FCC27C46F58
:1011E000D06A48CFDC2FCC27C06FD06A43CF8C2F7A
:1011F0008F700E949C0934E0D695C7953A95E1F727
:10120000CF709C2FEC01D06935CF82389105B1F1B8
:10121000B0F48133910509F475C048F48932910521
:1012200009F469C08A32910509F473C008958533C1
:10123000910509F459C08933910501F10895833E60
:101240009105A9F138F4803E9105F9F0823E9105AF
:1012500049F10895863E9105A9F1873E9105C9F1AE
:10126000843E910519F520915E0221FF1FC08091F7
:101270005D0284FD14C087EE90E0089520915D0228
:101280002370A1F080EE90E0089520915D0220FD92
:1012900047C030915E0230FF09C024FF44C090E097
:1012A00080E004C020915D0222FDF7CF08952091D7
:1012B0005D0222FD3BC030915E0230FDE3CF24FF92
:1012C000F5CFEDCF20915D0223FFF0CF24FDE7CFD6
:1012D000D2CF20915D0223FD2CC030915E0231FF00
:1012E000EECF84EE90E0089520915D0225FFDECFE1
:1012F00089E290E0089520915D0225FFD7CF85E334
:1013000090E0089520915D0226FFD0CF8AE290E020
:10131000089520915D0226FFC9CF81E390E00895F2
:1013200089E390E0089583EE90E0089582EE90E0E6
:10133000089586EE90E0089590915D0292FF06C0B8
:10134000282F28712830F9F4877F846093FF06C026
:10135000282F28712831F1F4877E846120915E0264
:1013600020FF06C0382F38713830D9F4877F81606C
:1013700021FF06C0282F28712831D1F4877E816192
:1013800094FD877E0895282F24712430F9F68B7FF1
:101390008860DCCF282F2471243101F78B7E88618F
:1013A000DDCF382F3171313019F78E7F8860E0CF73
:1013B000282F2171213121F78E7E8861E1CF089598
:1013C0000C94DF0908950C94E209E82FF0E0E05B4B
:1013D000FD4F80810895CF92DF92EF92FF920F939D
:1013E0001F93CF93DF938EE191E00E944E0680E53C
:1013F000E82E82E0F82ED0E0C0E099E1C92E91E01D
:10140000D92E01E111E0DF93CF93DF92CF920E94BA
:10141000E70686E191E00E944E06F70181917F0187
:101420000E94B2071F928F931F930F930E94E706AB
:101430008FE091E00E944E0621968DB79EB70896E8
:101440000FB6F8949EBF0FBE8DBFC430D105D9F63C
:10145000DF91CF911F910F91FF90EF90DF90CF9090
:101460000895FF920F931F93CF93DF932EE331E004
:101470006EE471E0C1E0D0E0D90150E040E08D9130
:101480008F3F91F0E82FE295EF70F0E0F1A08F70C0
:101490008E0101C0000F8A95EAF7902F90959F2149
:1014A00091A382A1802B82A34F5F5F4F44305105EF
:1014B00031F72C5F3F4F62177307F1F610924C0221
:1014C0001092500210924D021092510210924E0250
:1014D0001092520210924F021092530284E00E9426
:1014E000CD0ADF91CF911F910F91FF900C9440078F
:1014F000EF92FF920F931F93CF93DF93ECE4F2E010
:101500006EE371E0C0E001E010E07B0150E040E0FC
:1015100030E0D7012D917D012F3FB9F0822F8295C8
:101520008F7090E0DC0190968C9190E02F7002C05B
:10153000959587952A95E2F780FD2BC0C801042E6A
:1015400001C0880F0A94EAF7382B4F5F5F4F443091
:101550005105F9F680818317F1F0308381E0C82BC3
:1015600031966C5F7F4FB1E06E347B0771F62C2FA4
:1015700044E060E572E08CE492E00E94CE0A0E94B2
:1015800048078C2FDF91CF911F910F91FF90EF9023
:10159000089580E0D9CF80E0E2CF0895FF920F93C5
:1015A0001F93CF93DF93F82E092F162FD72FC42F19
:1015B000222349F081E0809394010E945C21909362
:1015C000930180939201809194018823A1F08091EE
:1015D0009201909193010E947421069760F0EF2D83
:1015E000F02FA12FBD2FCE0FDF2FD11DEC17FD0740
:1015F00041F410929401DF91CF911F910F91FF90D0
:10160000089581918D93F2CFCF93C82F1F928F931E
:1016100083E391E09F938F930E94E70661E070E07F
:1016200080E090E004C0660F771F881F991FCA955D
:10163000D2F70E94BC1C0F900F900F900F90CF918B
:101640000C942419CF93DF93EBEFE80FEF3308F0FE
:1016500040C2F0E0E255F64D0C945E2985E696E036
:101660000E944E0681EA95E00E944E060E94601F8D
:101670001F928F938EE995E09F938F930E94E706C8
:101680008CE995E00E944E060E945C1FC82F89E8F5
:1016900095E00E944E061F92CF9384E895E09F93B9
:1016A0008F930E94E70682E895E00E944E0688E745
:1016B00095E00E944E068C2F81701F928F9385E7D4
:1016C00095E09F938F930E94E70683E795E00E9441
:1016D0004E0689E695E00E944E06C1FB882780F9F8
:1016E0001F928F9386E695E09F938F930E94E70663
:1016F00084E695E00E944E0688E595E00E944E063D
:10170000C2FB882780F91F928F9385E595E09F9310
:101710008F930E94E70683E595E00E944E068AE4D7
:1017200095E00E944E06C3FBCC27C0F91F92CF93D1
:1017300087E495E09F938F930E94E70685E495E008
:101740000E944E060E94641FEC0181E395E00E9416
:101750004E06DF93CF938CE295E09F938F930E9488
:10176000E7068AE295E00E944E0681E195E00E943C
:101770004E068C2F81701F928F938EE095E09F9381
:101780008F930E94E7068DB79EB780960FB6F894A8
:101790009EBF0FBE8DBF8CE095E00E944E0685EF88
:1017A00094E00E944E06C1FB882780F91F928F9318
:1017B00082EF94E09F938F930E94E70680EF94E07E
:1017C0000E944E068EED94E00E944E068D2F817091
:1017D0001F928F938BED94E09F938F930E94E70667
:1017E00089ED94E00E944E0687EC94E00E944E063C
:1017F000D695D1701F92DF9384EC94E09F938F93E2
:101800000E94E70682EC94E00E944E0680EB94E092
:101810000E944E06C2FB882780F91F928F938DEAA3
:1018200094E09F938F930E94E7068BEA94E00E94D6
:101830004E0689E994E00E944E06C3FB882780F992
:101840001F928F9386E994E09F938F930E94E706FF
:1018500084E994E00E944E068AE894E00E944E06D5
:10186000C4FB882780F91F928F9387E894E09F93A9
:101870008F930E94E70685E894E00E944E0683E776
:1018800094E00E944E06C5FB882780F91F928F9333
:1018900080E794E09F938F930E94E7068EE694E0A2
:1018A0000E944E0682E594E00E944E06C6FB882701
:1018B00080F91F928F938FE494E09F938F930E94FF
:1018C000E7068DB79EB780960FB6F8949EBF0FBE01
:1018D0008DBF8DE494E00E944E0685E494E00E9462
:1018E0004E06C7FBCC27C0F91F92CF9382E494E049
:1018F0009F938F930E94E70680E494E00E944E0637
:101900000F900F900F900F9081E01CC084E596E03F
:101910000E944E060E94F51FF7CF8EE892E00E94CB
:101920004E06F2CF80912502807F8093250283E7C7
:1019300092E00E944E0680E596E00E944E0681E00D
:1019400080939501DF91CF91089584E396E00E9402
:101950004E060E944B07D8CF90912502892F8E7F8B
:1019600090FF81608093250280FF03C088E296E0AB
:10197000D6CF8BE196E00E944E0680912502817FB2
:1019800080932502C1CF90912502892F8D7F91FFF1
:1019900082608093250281FF08C08EE096E00E945D
:1019A0004E06809125028160EBCF80E096E0B7CFB4
:1019B00090912502892F8B7F92FF8460809325026E
:1019C00082FF03C081EF95E0EACF81EE95E0A7CFDB
:1019D00090912502892F877F93FF8860809325024D
:1019E00083FF03C085ED95E0DACF88EC95E097CFD3
:1019F00084E692E00E944E068DE292E00E944E063E
:101A000086E192E00E944E0684EE91E00E944E062E
:101A100089EB91E084CF8BEA91E00E944E060E9410
:101A2000F1131F928F9381E991E09F938F930E940E
:101A3000E70680910C011F928F938AE791E09F93B4
:101A40008F930E94E70680914B021F928F9387E647
:101A500091E09F938F930E94E70680915D0287FB40
:101A6000882780F91F928F938FE491E09F938F9343
:101A70000E94E7060E9468219F938F937F936F9344
:101A800088E391E09F938F930E94E7068DB79EB7FE
:101A900046960FB6F8949EBF0FBE8DBF35CF0E94FD
:101AA000241990915D02892F97FB87F980588093C4
:101AB0005D0287FF03C08EEB95E031CF83EB95E0AD
:101AC0002ECF80E00E94040B1FCF8953FBCF8D5196
:101AD000F9CF81EB95E00E944E0680E033CF80E0A5
:101AE00008950C946F0DCF93C82F80919501882392
:101AF00031F0813099F01092950180E00DC00E9484
:101B0000A21E8232D1F78C2F0E946F0D811119C055
:101B10008C2F0E94220B8170CF9108950E94A21EEB
:101B2000823289F38C2F0E94710D811119C0C4314A
:101B3000C9F050F4CB3061F08DE291E00E944E0686
:101B400013C081E090E0E7CFC93261F0C833A1F75C
:101B500083E792E00E944E068FE291E00E944E06DB
:101B600081E0D9CF1092950180E0D5CFEF92FF921E
:101B70000F931F93CF93DF93EB01E82FD11110C088
:101B8000442321F0F0E0EB50F74FE4916E2F7E2FCD
:101B90008E2FDF91CF911F910F91FF90EF900895BD
:101BA0000D2F10E0282F30E0442329F02B50374F21
:101BB000F901249130E0F6E0CF9FC0011124EFEF4E
:101BC000F0E0BF010E944A29AB018C2F90E0880F02
:101BD000991FA5E5A49FB001A59F700D1124861B38
:101BE000970B982F990F980FBF01601B710B629F85
:101BF000D001639FB00D729FB00D11248B2F9D9F5C
:101C0000B0011124672F7727EF01C61BD70BBE0148
:101C1000629FE001639FD00D729FD00D11247F0160
:101C2000E91AF108E09EB001E19E700DF09E700D82
:101C30001124672F7727E61BF70BE29F8001E39FB4
:101C4000100DF29F100D1124E12F722F423051051B
:101C500099F048F44115510569F04130510581F082
:101C6000EB2F8D2F07C04430510569F080F04630CE
:101C70005105B1F76E2F8DCFE22F7B2F812FFACF39
:101C8000E22F7D2FF7CFEB2F822F712FF3CF7B2FFA
:101C9000822FED2FEFCF41E00C94B60D0C944B0E3C
:101CA000CF93DF93762FE901682F842F0E944E0E89
:101CB000798368838A83DF91CF910895809154025C
:101CC000982F9E7F39F480915402817082608093B6
:101CD000540208958430B8F7089588E090E00C9499
:101CE0006C29CF92DF92EF92FF926B017C010E94F0
:101CF0005E0EB701A60188E090E0FF90EF90DF90C4
:101D0000CF900C948A29E4E5F2E083E0808311828D
:101D10008FEF8283838314826081718182819381BA
:101D20000C94710E8091250280FF76C08CED98E0B6
:101D30009F938F930E94E706809125020F900F904A
:101D400080FF6AC08091540281701F928F938FEB45
:101D500098E09F938F930E94E706809125020F9051
:101D60000F900F900F9080FF57C08091540286957E
:101D70001F928F9384EA98E09F938F930E94E706C7
:101D8000809125020F900F900F900F9080FF44C01C
:101D9000809155021F928F938AE898E09F938F93CA
:101DA0000E94E706809125020F900F900F900F90F0
:101DB00080FF32C0809156021F928F9380E798E097
:101DC0009F938F930E94E706809125020F900F90BA
:101DD0000F900F9080FF20C0809157021F928F9329
:101DE00086E598E09F938F930E94E70680912502F5
:101DF0000F900F900F900F9080FF0EC080915802AF
:101E00001F928F938AE398E09F938F930E94E70637
:101E10000F900F900F900F9008959091580293306B
:101E200018F49F5F90935802882351F060915402F8
:101E30007091550280915602909157020C94710E48
:101E4000089581E00C940D0F90915802992319F098
:101E5000915090935802882351F0609154027091F0
:101E6000550280915602909157020C94710E08957C
:101E700081E00C94240F70E00C94B51160919701EF
:101E80008091540280FF0AC08091960123E0829FD6
:101E9000C0011124875A9D4F0C943B0F80919801EB
:101EA0009091990123E0829FF0011124E75AFD4FA0
:101EB000891750F71182108212828F5F3396F8CF04
:101EC000809154028E7F80935402609154027091ED
:101ED000550280915602909157020E94710E809196
:101EE000250280FF0FC08091540281701F928F9352
:101EF0008CEB96E09F938F930E94E7060F900F90D4
:101F00000F900F902FEF80E792E02150804090409B
:101F1000E1F700C000000C943E0F9091540290FF36
:101F200014C0909198012091990133E0939FF001A2
:101F30001124E75AFD4F921710F00C943E0F818345
:101F4000608342839F5F3396F6CF0895EF92FF92AE
:101F50000F931F93CF93DF9300D00F92CDB7DEB7CF
:101F6000182F062FF42EE22E8091540280FF43C0DA
:101F7000E82FE695F0E0E25BFE4F908190939C01A4
:101F80008E7F823059F49E012F5F3F4F812F0E9438
:101F9000500E4B8169818A810E948D0F10935502EA
:101FA00000935602F0925702EE2079F160915402AC
:101FB0007091550280915602909157020E94710EC5
:101FC0008091250280FF17C0809157021F928F9346
:101FD000809156021F928F93809155021F928F938A
:101FE00087E996E09F938F930E94E7060FB6F894D7
:101FF000DEBF0FBECDBF0F900F900F90DF91CF913E
:102000001F910F91FF90EF9008958091250280FF1E
:10201000F2CF1F92FF921F920F931F921F9380E7A0
:1020200096E0E0CFE4E5F2E09181282F43816281E0
:1020300088E0890F0C94A60F81E00C941210E4E55F
:10204000F2E09181282F4381628188EF890F0C94FF
:10205000A60F81E00C941F10E4E5F2E0628121E11B
:10206000620F08F46FEF282F438181810C94A60F33
:1020700081E00C942C10E4E5F2E0628121E1621B26
:1020800008F460E0282F438181810C94A60F81E041
:102090000C943B10E4E5F2E0438121E1420F08F4A7
:1020A0004FEF282F628181810C94A60F81E00C9460
:1020B0004A10E4E5F2E0438121E1421B08F440E0EC
:1020C000282F628181810C94A60F81E00C94591015
:1020D00020E00C94A60F8091540280FF35C08170DF
:1020E000826080935402662329F1609154027091BA
:1020F000550280915602909157020E94710E809174
:10210000250280FF0FC08091540286951F928F9305
:1021100080E897E09F938F930E94E7060F900F90BF
:102120000F900F9040915702609156028091550296
:102130000C9468108091250280FFF4CF1F9281E0FB
:102140008F9382E697E0E6CF0895682F81E00C94A4
:102150006B1081E00C94A510682F90915402969515
:102160008FEF890F09F481E00C946B1081E00C94DF
:10217000AC1061E00C946B108091540281608093EC
:1021800054028091250280FF0DC01F9281E08F9341
:1021900084EF96E09F938F930E94E7060F900F9035
:1021A0000F900F908091540286950C94B9108091F5
:1021B000250280FF10C080915402809581701F928B
:1021C0008F938BE297E09F938F930E94E7060F9087
:1021D0000F900F900F908091540280FD0C94600F2F
:1021E0000C94BC1060E00C946B1080919B018111E9
:1021F0005EC08091250280FF14C083E298E09F9327
:102200008F930E94E706809125020F900F9080FF28
:1022100008C08DE098E09F938F930E94E7060F908F
:102220000F900E94511F811110C08091250280FFE4
:1022300008C085EE97E09F938F930E94E7060F906A
:102240000F900E94F51F0E94830E0E946D0E6093F6
:1022500054027093550280935602909357026E7FFA
:10226000C1F48091250280FF08C08CE997E09F931C
:102270008F930E94E7060F900F900E94830E0E949A
:102280006D0E6093540270935502809356029093A2
:1022900057020E945E0E0E94920E8091540280FFAF
:1022A00003C086950E94F21081E080939B010895FF
:1022B000FA01811101C0FB0109940F931F93CF9381
:1022C0008C01FB01C281CC2309F44DC00E94A21EE7
:1022D0008272F801E35CFC45E431F10538F4E35126
:1022E000F64D0C945E290E94D710C0E08C2FCF9140
:1022F0001F910F91089546EB50E169EA70E10E9449
:102300005811F3CF49EA50E166EB70E1F8CF49E2AA
:1023100050E16CE170E1F3CF4CE150E169E270E132
:10232000EECF47E450E168E370E1E9CF48E350E1E4
:1023300067E470E1E4CF45E650E166E570E1DFCFA8
:1023400046E550E165E670E1DACF48E35FE061E23F
:102350007FE0D5CF41E25FE068E37FE0D0CF81E06E
:102360000E94B910C2CFC1E0C1CF509A4BB14E7F8D
:102370005BB15160EFB7F8949B01220F331F260F1A
:10238000371F280F391F2817390741F4EFBF8FE592
:1023900094E00197F1F700C000000895DC016D9111
:1023A000CD0178E05BB9000000C067FF4BB9660F54
:1023B000000000C000C000C04BB900C07A9591F782
:1023C000E2CF0F931F93CF93DF93C42FD22FFC0143
:1023D00082818823C9F04093A0010E945C219093E0
:1023E0009F0180939E0180E28C0F883008F050C0DE
:1023F000C77081E001C0880FCA95EAF7DF91CF91DD
:102400001F910F910C94BA161091A001141335C0AE
:1024100080919E0190919F010E947421883C9105BA
:1024200060F5C0E2CD0F1D17B9F080E2810F883052
:1024300040F4177081E001C0880F1A95EAF70E94F6
:10244000C116C83048F481E09D2F977001C0880FF5
:102450009A95EAF70E94BA16802F0E94B216C830E9
:10246000B8F4D77081E001C0880FDA95EAF7DF9100
:10247000CF911F910F910C94C11680E28C0F883080
:1024800038F4C77081E001C0880FCA95EAF7EFCF32
:10249000DF91CF911F910F9108950F939C01CB0174
:1024A000243F4CE5340759F1A8F4293DFCE53F07EA
:1024B00001F12A3D4CE53407D1F1283D3C4591F42A
:1024C00006E221EE41EE68ED7CE50E94E11180E03C
:1024D0000F910895263FFCE53F07E9F0B0F0273F54
:1024E0003C45F9F0FC018281882339F11092A0016A
:1024F000EFCF07E225EE45EE69ED7CE5E6CF06E29B
:1025000021EE40EE64EF7CE5E0CF07E225EE44EEFD
:1025100065EF7CE5DACF06E221EE42EE66EF7CE580
:10252000D4CF07E225EE46EE67EF7CE5CECF08E29A
:1025300021E045EE6AED7CE5C8CF81E0C9CFCF93BD
:10254000DF93EC01FB018281882309F419C1C230B9
:10255000FCE5DF07C0F1C6319CE5D90730F09E01EC
:102560002B5F3C452930310570F50E94641F909324
:102570005E0280935D02C031ECE5DE0709F4CFC056
:1025800008F05BC0C8308CE5D80709F4B6C088F500
:10259000C430ECE5DE0709F4A8C0C0F4C2308CE515
:1025A000D80709F49CC080915D028260C330DC458D
:1025B00009F498C080915D0290915E020E94721FA2
:1025C0000E94241980E0DF91CF91089580915D02EF
:1025D0008061C630ECE5DE0709F484C080915D02BD
:1025E0008860C730DC4508F47DC080915D02806260
:1025F00079C0CC308CE5D80709F489C070F480919B
:102600005D028C60CA30ECE5DE0709F46BC008F4AB
:1026100078C080915D028E7F65C0CE308CE5D80792
:1026200009F479C080915D028B7FCF30DC4508F4DE
:1026300059C080915D028F7E55C0CC3FECE5DE072E
:1026400009F457C030F5C3318CE5D80709F46FC0E1
:1026500078F4C131ECE5DE0709F465C0C231DC4530
:1026600009F0A8CF0E94241980915D028F773AC0AB
:10267000C5318CE5D80709F462C008F476C08091B2
:102680005E028160CB3FDC4509F094CF80935E020F
:1026900091CFC115FDE5DF0709F44DC088F48091A5
:1026A0005E028D7FCE3F9CE5D90781F380915E026B
:1026B0008E7FCF3FDC4550F380915E028360E6CF92
:1026C000C230FDE5DF0709F459C008F444C080E0DA
:1026D000C330DD4509F06ECF0E94F71F6BCF8091AC
:1026E0005D02816080935D0265CF80915D028460B0
:1026F000F9CF80915E028260C9CF80915D028064D3
:10270000F1CF0E94241980915D028068EBCF809107
:102710005D028D7FE7CF80915D02877FE3CF80915F
:102720005D028F7DDFCF80915D028F7BDBCF80915B
:102730005D02837FD7CF80915E028C7FA7CF80918F
:102740005D0282FB992790F921E0922790FB82F9A4
:1027500090FB83F9C7CF80915E02982F909591707E
:102760008E7F892B90FB81F991CF0E942419909143
:102770005D02892F97FB87F98058B4CF81E0ACCFF9
:1027800081E021CFCF93DF93EB0186319C4511F59A
:102790000E94A21E9A81992399F08A7A91E009F405
:1027A00090E09093A101811109C089E20E947D1EF1
:1027B0000E94EE1E80E0DF91CF91089585E3F6CF71
:1027C0008091A101811104C089E20E94841EF0CF92
:1027D00085E3FBCF81E0EFCF9093A7018093A60123
:1027E0000895E091A601F091A701309721F00190A2
:1027F000F081E02D099480E00895EF92FF920F930D
:102800001F93CF93DF93EC01E091A601F091A70114
:10281000309709F446C080910C01882341F08091E3
:102820005D0287FF04C08881898385E088830280F8
:10283000F381E02DCE0109958091250282FF31C000
:1028400080FF04C08DEF99E00E944E0610E000E08A
:1028500087EFE82E89E0F82E8091250280FF0EC0D8
:10286000FE01E00FF11F80811F928F93FF92EF9284
:102870000E94E7060F900F900F900F900F5F1F4F71
:102880000830110549F78091250280FF0AC085EFC5
:1028900099E0DF91CF911F910F91FF90EF900C94F1
:1028A0004E06DF91CF911F910F91FF90EF90089509
:1028B0002091A4013091A5012817390771F0909358
:1028C000A5018093A401E091A601F091A7013097A2
:1028D00021F00680F781E02D099408952091A2014E
:1028E0003091A3012817390771F09093A3018093C9
:1028F000A201E091A601F091A701309721F0008498
:10290000F185E02D099408950E9468216093B1013A
:102910007093B2018093B3019093B4016093AD01C1
:102920007093AE018093AF019093B001089585B785
:10293000806885BF85B7806885BF0895089508952C
:102940000C949E1408950C94A2140E9497148AE883
:1029500093E20E94B8210E949F140C94A01481E07D
:1029600008950C94AF14089508950E9453210E9475
:10297000310A0E94BD210E94F5100C94A314CF933C
:10298000C82F8091250282FF1EC080FF1CC086E1F7
:102990009AE00E944E068091250280FF14C01F928B
:1029A000CF9381E19AE09F938F930E94E7068091F5
:1029B00025020F900F900F900F9080FF04C08FE0C2
:1029C0009AE00E944E068C2FCF910C94D107AF92C3
:1029D000BF92CF92DF92EF92FF920F931F93CF930C
:1029E000DF93CDB7DEB72A970FB6F894DEBF0FBEE0
:1029F000CDBF0E94B3140E94B4140E94780A8111C2
:102A00000E94841489EAA82E81E0B82E10E000E02C
:102A1000C02E802F0E94E509E82EF501F1905F019C
:102A2000F81609F44BC08091250281FD0E94EB0944
:102A30008F2D8E25D12CFF24F394982F9F21C9F13F
:102A40000E94B114882399F0DE82CF82EF2081E0CA
:102A500009F480E088870E945C218160782F9A8742
:102A600089874E815F8168858A850E948615F80175
:102A7000E755FE4F8081F826F0820E94F113909175
:102A8000A801891791F10E94F1138093A8012A9659
:102A90000FB6F894DEBF0FBECDBFDF91CF911F916F
:102AA0000F91FF90EF90DF90CF90BF90AF900C947C
:102AB000BF14D394FF0CF4E0DF12BFCF0F5F1F4FA2
:102AC0000430110509F0A4CF8FEF89838A831B821C
:102AD0000E945C218160782F9D838C8349815A817B
:102AE0006B818D810E948615C8CF2A960FB6F89407
:102AF000DEBF0FBECDBFDF91CF911F910F91FF9031
:102B0000EF90DF90CF90BF90AF900895DF92EF925B
:102B1000FF920F931F93CF93DF93CDB7DEB72B9721
:102B20000FB6F894DEBF0FBECDBF7A878B87F42E29
:102B3000052F162FE72ED82E61110E94C21E1E826D
:102B40001D827E2DEC82DD824F2D502F612F8D2D29
:102B50009E812B960FB6F894DEBF0FBECDBFDF91DE
:102B6000CF911F910F91FF90EF90DF900C949A1BE3
:102B7000FC01808191810C944F1ECF93C82F882334
:102B800009F488C08238C1F40E94F11381FD82C02B
:102B900089E30E947D1E0E94EE1E2FEF81EE94E0DD
:102BA000215080409040E1F700C0000089E30E947E
:102BB000841ECF910C94EE1E8338A1F40E94F11371
:102BC00080FD68C083E50E947D1E0E94EE1E2FEFEF
:102BD00081EE94E0215080409040E1F700C0000079
:102BE00083E5E5CF8438A1F40E94F11382FD52C041
:102BF00087E40E947D1E0E94EE1E2FEF81EE94E07E
:102C0000215080409040E1F700C0000087E4CFCF22
:102C10008CEF8C0F813AB8F48C2F0E94730D8111C8
:102C200039C06C2F80910001909101010E94102009
:102C3000882329F08C2F0E94841E0E94EE1E8C2F68
:102C40000E947D1EB6CF80E28C0F883048F4C7709A
:102C500081E001C0880FCA95EAF70E94A51EA9CF9E
:102C6000EBE5EC0FE33040F4F0E0E258FE4F8081FA
:102C700090E0CF910C945814C85AC73158F4EC2FF7
:102C8000F0E0EE0FFF1FE05BFE4F80819181CF915E
:102C90000C946E14CF910895882309F44BC08238A8
:102CA00071F40E94F11381FF45C089E30E947D1EEB
:102CB0000E94EE1E89E30E94841E0C94EE1E83384F
:102CC00059F40E94F11380FF35C083E50E947D1EF8
:102CD0000E94EE1E83E5EFCF843859F40E94F11371
:102CE00082FF28C087E40E947D1E0E94EE1E87E4BA
:102CF000E2CF9CEF980F913AF0F290E2980F983063
:102D000050F4877091E001C0990F8A95EAF7892FF6
:102D10000E94AB1ED2CF9BE5980F933020F490E039
:102D200080E00C945814885A873120F490E080E0B9
:102D30000C946E1408951F93CF93DF93182FEB011B
:102D40000E94BD15209731F4812FDF91CF911F9103
:102D50000C944C168FE99FE00197F1F700C000003A
:102D60002197F0CF70E060E0893311F460E570E006
:102D70000C949B16882321F00E94A51E0C94EE1E35
:102D80000895882321F00E94AB1E0C94EE1E089536
:102D9000BF92CF92DF92EF92FF920F931F93CF9348
:102DA000DF936C01D62FC72FFC011281058102959C
:102DB0000F700E949B1EE82E8823A1F0E12E1123A4
:102DC00089F08C2F807F803429F080E28D0FE12CF8
:102DD000883040F082E00E94391F0E949B1E91E0E3
:102DE000E82EE926BC2EB2949FE0B922EB2DF0E04C
:102DF000EF5FF54D0C945E290C2F0F70C07F11F022
:102E00000295007F1123A9F0002359F080E28D0F75
:102E1000883010F0D11109C0802F0E94A51E0E9499
:102E2000EE1E8D2F0E94BD1514C0802F0E94B51E6E
:102E3000F6CF8D2F0E944C16002359F080E28D0FA3
:102E4000883010F0D1112CC0802F0E94AB1E0E9440
:102E5000EE1E2B2D2850330B2430310520F40E9418
:102E6000F1130E94D107EE2009F493C10E94971E2E
:102E700080FD8FC1F60112820E94911E0E941E1DCC
:102E8000C6010E94EA180E94911EDF91CF911F9106
:102E90000F91FF90EF90DF90CF90BF900C943F1D6B
:102EA000802F0E94BB1ED3CFFC2FFF70FF2EC07F50
:102EB000C03219F0F29480EFF822DD2369F0D130AE
:102EC00049F1112391F1002351F1F601858180FF31
:102ED000A8CF8F70858323C0112381F0011106C014
:102EE0000E94D51E8F290E94BA16B3CF0130C1F7B8
:102EF0000E94D51E8F290E94DB1EABCF011106C098
:102F00000E94E41E8F2D0E94C116A3CF013009F448
:102F1000A0CFF6CF112329F0063008F09ACF8F2DDD
:102F2000E2CF053008F095CFEDCF002359F3D93328
:102F300049F4FFEF27EE33E0F15020403040E1F755
:102F400000C000008D2F0E944C1683CF8C2F8695D9
:102F50008695837069F0813009F07BCF8D2F9C2F8F
:102F60009370111102C090E080E00E946E1471CF46
:102F70008D2F9C2F9370111102C090E080E00E9471
:102F8000581467CF8C2F837009F041C0111161CFA5
:102F90004D2F429546954770440F440F0D2F0F70EB
:102FA00010E030E020E0042E04C0000F111F221FAB
:102FB000331F0A94D2F760E070E0CB01D4FF0FC05A
:102FC0006FE070E080E090E004C0660F771F881F1C
:102FD000991F4A95D2F76095709580959095C69502
:102FE000C695C370602B712B822B932BC23049F096
:102FF00058F4C13019F00E94D01C2BCF0E94BE1C87
:1030000028CF0E94E21C25CF0E94BC1C22CF8695AF
:10301000112311F08C2F8170882309F41ACF4D2FC2
:10302000429546954770440F440F0D2F0F7010E0E6
:1030300030E020E0042E04C0000F111F221F331FB8
:103040000A94D2F760E070E0CB01D4FF0FC06FE0CC
:1030500070E080E090E004C0660F771F881F991F22
:103060004A95D2F76095709580959095C695C695CE
:10307000C370602B712B822B932BC23049F058F414
:10308000C13019F00E94951DE4CE0E94831DE1CE4F
:103090000E94A71DDECE0E94F81CDBCECF7011234C
:1030A00029F08C2F0E941E1D8D2F1DCF8D2F0E9469
:1030B000C1168C2F0E943F1DCCCED23F89F160F407
:1030C000D03FC9F0D13F29F1112309F442C00111C9
:1030D000A8CE8C2F8F7121C0D33F39F1D43FA1F7F7
:1030E000112369F1CF718C2F0E941E1D63E08C2F7C
:1030F0000E94241FAECE112341F0053008F0A9CE66
:103100008C2F8F710E94621DA4CE063008F0A1CED4
:10311000F7CF8C2F8F71112369F20E941E1D99CE5B
:103120008C2F8F711123C9F3C5CF112329F08C2F58
:103130008F710E94091D8DCE0E94041D8ACE81E0F0
:103140000E94391F023008F484CE82E00E94391FA9
:1031500080CE002359F0D93309F0F4CE8FEF97EEEB
:10316000E3E081509040E040E1F7EACE8C2F8F7190
:10317000A1CF4C2F4F706D2FC6010E94D9070E941E
:10318000341C67CE4C2F4F706D2FC6010E94DC0798
:1031900060CEDF91CF911F910F91FF90EF90DF9064
:1031A000CF90BF9008950F931F93CF93DF93EC01BF
:1031B000688179818A810E94591E8C010E94B91D03
:1031C0000E94BB1CB801CE01DF91CF911F910F91DE
:1031D0000C94C816CF93DF93EC018B819C81892BD3
:1031E00029F08881998189238F3F59F4DF91CF910C
:1031F0000895CE010E94D318CE01DF91CF910C9497
:103200003507CE010E945A078111F3CF0E949B1E01
:10321000882361F38A81882349F382E0DF91CF918B
:103220000C94391F90E080E00E94581490E080E0F8
:103230000E946E140E94C21E0E94D21E0C94EE1EAA
:103240000E948B1E0C9412190E94B21E0C9420191D
:10325000E92FE295EF70E250EE3070F4F0E0EF5EAF
:10326000F54D0C945E29803F19F020F4883E20F43F
:1032700081E00895843FE1F380E00895883EC0F343
:10328000813FD1F7F5CF93FB882780F908950E94FD
:103290004F1E0C942819CF93DF9300D000D00F92CB
:1032A000CDB7DEB70F900F900F900F900F90DF917A
:1032B000CF910895CF93DF9300D000D000D0CDB749
:1032C000DEB726960FB6F894DEBF0FBECDBFDF91F6
:1032D000CF9108951F93CF93DF93C091B60116E06D
:1032E0008091B7018C1304C0DF91CF911F91089595
:1032F000D0E01C9FF0011D9FF00D1124E854FE4FFB
:103300004081518162817381848195810E945A1923
:103310002196C770E5CF4091E8015091E901609195
:10332000EA017091EB018091EC019091ED010C9418
:103330005A191F93CF93DF938091ED01807FA9F4F9
:103340008091EA01882389F08091B601C091B7018C
:103350006091E8017091E901A091EB01B091EC015D
:10336000D62FD72316E0C81304C0DF91CF911F9149
:10337000089590E0109711F0DF3F19F401968770DF
:10338000F2CF189F9001199F300D1124F901E854D4
:10339000FE4F41814713F2CF40814613EFCF428168
:1033A0004111ECCF438154814A1B5B0B483C5105D2
:1033B00028F78091ED018F7080618093ED01F90114
:1033C000E354FE4F80818F708061808388EE91E0AE
:1033D0000E94EA18DF91CF911F910C946A19AF9265
:1033E000BF92CF92DF92EF92FF920F931F93CF93F2
:1033F000DF93CDB7DEB761970FB6F894DEBF0FBE8F
:10340000CDBF8C0185E0F801DE011D9601900D9283
:103410008A95E1F7F80140815181E28088EEC82E5B
:1034200081E0D82E6091EB017091EC01611571057E
:1034300009F461C19091E8012091E901892F82236B
:103440008F3F09F458C1A380B480F090EA01F501E0
:10345000E61BF70BFF2009F4FCC08091ED01382F2B
:10346000307FE83CF10508F0B2C0311179C0FE2C84
:10347000251323C0941321C0E1101FC08F708061F9
:103480008093ED010E948B19C6010E94EA18809179
:10349000ED01F80185838F2D61960FB6F894DEBF9C
:1034A0000FBECDBFDF91CF911F910F91FF90EF9095
:1034B000DF90CF90BF90AF900895AB2829F0842F74
:1034C00085238F3F09F033C180E0F82FF170DF2EA4
:1034D00080FF3CC08091B6012091B70136E0821395
:1034E00015C04D875E878D859E850E944F1E292FB2
:1034F00022952F702230F0F0243018F59F70F1F0F3
:10350000F8019581907FD1F4D12C1EC090E0389FB6
:10351000F001399FF00D1124E854FE4F61816513CD
:1035200006C06081641303C062816E110FC00196F2
:103530008770D5CF9F7011F0882331F3805E88307B
:1035400018F3C8010E94EA18FD2CA5CFEE2009F45B
:10355000A2CF8091ED0181608093ED01F12C9BCF92
:10356000251306C0941304C0F801EE2009F48DC0A1
:103570004D875E878D859E850E944719882319F1A6
:10358000EE2009F18091ED01803270F02091E80188
:103590003091E90138872F831986BB86AA868C87EC
:1035A000CE0107960E94EA1886E0F801A8EEB1E085
:1035B00001900D928A95E1F70E9499190E948B194A
:1035C000FF24F39468CFC8010E94EA18F9CF3111A3
:1035D00013C07A2DB98AA88A6E2D89890E944B1949
:1035E00088EE91E00E94EA1886E0F60111928A9531
:1035F000E9F70E948B19B2CF25130FC094130DC0A9
:10360000E1100BC0F8018583C8010E94EA1886E02A
:10361000F60111928A95E9F73ECF4D875E878D8539
:103620009E850E944719882371F2EE2061F28091F5
:10363000ED01803208F4B8CF2091E8013091E90122
:103640003A8329831B82BD82AC828E83CE01019690
:10365000A9CFE83CF10508F041C0FE2CEE2009F4AA
:10366000B2CF25132AC0941328C08091ED0180FDAC
:103670001BC0982F907FC1F0F8018583903F31F0F7
:10368000982F907F905F8F70892B8583C8010E944F
:10369000EA1886E0F801A8EEB1E001900D928A9553
:1036A000E1F70E948B19F7CE86E0F801A8EEB1E0B1
:1036B00001900D928A95E1F7EECE4D875E878D855C
:1036C0009E850E94471981116FCF8091ED01816025
:1036D0008093ED01C8010E94EA18DDCE7A2DB98AE7
:1036E000A88A6E2D89890E944B1986E0F6011192F5
:1036F0008A95E9F7D6CFEE2009F465CF4D875E872E
:103700008D859E850E944719F82E882309F45BCF8A
:1037100086E0F801A8EEB1E001900D928A95E1F7FC
:1037200088EE91E00E94B8150E949919BACF81E005
:103730008E25CBCE1F93CF93DF93CDB7DEB72C97DB
:103740000FB6F894DEBF0FBECDBF4F835887698791
:103750007A878B879C87CE0107960E94EF19882372
:1037600069F08A859B85892B39F04F815885842F94
:1037700085238F3F09F071C016E05FC086E0FE012F
:103780003796DE01119601900D928A95E1F78A85B0
:103790009B85892B89F38F81988589238F3F61F3DE
:1037A0002091B70130E0C9010196877099274091B7
:1037B000B6014817190671F40E9424191092B70136
:1037C0001092B60186E0E8EEF1E0DF011D928A95E5
:1037D000E9F7D2CF96E0929FD001939FB00D1124CC
:1037E000A854BE4FFE01319601900D929A95E1F7D3
:1037F0008093B7010E946A19BFCF819FC001112435
:1038000088549E4F0E94EF198823E9F0E091B60199
:103810001E9FF0011124E854FE4F408151816281C6
:103820007381848195810E945A198091B60190E03C
:103830000196877099278093B6018091B601909187
:10384000B7018913DACF2C960FB6F894DEBF0FBEFE
:10385000CDBFDF91CF911F91089569857A858B85C2
:103860009C850E945A1988CFEF92FF920F931F9365
:10387000CF93DF938C01892B81F0F12CEE24E3941C
:10388000E8012196F8018491843770F4843008F0BF
:103890005FC08130B1F08230A1F1DF91CF911F91F3
:1038A0000F91FF90EF900895853709F44CC008F40C
:1038B0003DC09CE7980F903780F78F770E944C1699
:1038C00049C00E5F1F4FFE01849190E2980F98301F
:1038D00060F48770FE2D01C0FF0F8A95EAF78F2FE5
:1038E0000E94C51E0E94EE1E02C00E94BD158F2DB3
:1038F000815030F2EFE9FFE03197F1F700C00000AE
:10390000F7CF0E5F1F4FFE01849190E2980F983021
:1039100050F48770FE2D01C0FF0F8A95EAF78F2FB4
:103920000E94CB1EDFCF0E944C16E1CF0E5F1F4FCF
:10393000FE01C491C150D8F28FE99FE00197F1F7E1
:1039400000C00000F7CF0E5F1F4FFE01F490CFCFF5
:103950000E94BD158E01CBCF08950C94AC1C0E9423
:10396000AD1C6093FC017093FD018093FE01909368
:10397000FF010C94121908950C94AF1C0F931F9320
:103980000091FC011091FD012091FE013091FF0199
:10399000602B712B822B932B1F910F910C94AF1CDA
:1039A0000F931F930091FC011091FD012091FE01E6
:1039B0003091FF0160237123822393231F910F9184
:1039C0000C94AF1C0F931F930091FC011091FD010B
:1039D0002091FE013091FF016027712782279327F4
:1039E0001F910F910C94AF1C0C94AC1C0C94F41C04
:1039F0000E94F61C6093F8017093F9018093FA011C
:103A00009093FB010C94121960E070E0CB010C94D0
:103A1000F81C0F931F9341E050E060E070E08A01D2
:103A20009B0104C0000F111F221F331F8A95D2F77C
:103A3000C901B8011F910F910C94F81C0F931F93AB
:103A400041E050E060E070E004C0440F551F661F85
:103A5000771F8A95D2F78091F8019091F901A09192
:103A6000FA01B091FB018A019B01082B192B2A2B2B
:103A70003B2BC901B8011F910F910C94F81C0F93B7
:103A80001F9341E050E060E070E004C0440F551F18
:103A9000661F771F8A95D2F7CB01BA0160957095A2
:103AA000809590950091F8011091F9012091FA010B
:103AB0003091FB0160237123822393231F910F9187
:103AC0000C94F81C0F931F9341E050E060E070E00D
:103AD00004C0440F551F661F771F8A95D2F7809147
:103AE000F8019091F901A091FA01B091FB018A01CE
:103AF0009B01082719272A273B27C901B8011F91D5
:103B00000F910C94F81C0F931F930091F8011091E2
:103B1000F9012091FA013091FB01602B712B822B6E
:103B2000932B1F910F910C94F81C0F931F930091EE
:103B3000F8011091F9012091FA013091FB01602305
:103B40007123822393231F910F910C94F81C0F93E0
:103B50001F930091F8011091F9012091FA01309121
:103B6000FB0160277127822793271F910F910C94E7
:103B7000F81C0895990F990F890F982F977041E0BD
:103B800001C0440F9A95EAF786958695869595E04B
:103B9000899FF0011124E251FE4F30E020E070E0F7
:103BA0005191DF011197CB01022E02C096958795A6
:103BB0000A94E2F7817081958527842385278C9369
:103BC0002F5F3F4F2530310559F70895990F990F11
:103BD000890F982F977086958695869525E0829F08
:103BE000F0011124E251FE4F50E040E080E02191CD
:103BF00030E0092E02C0369527950A94E2F721702D
:103C00003327042E01C0220F0A94EAF7822B4F5F5C
:103C10005F4F4530510559F70895BF92CF92DF921B
:103C2000EF92FF920F931F93CF93DF938C01C0907D
:103C3000F801D090F901E090FA01F090FB01809139
:103C4000FC019091FD01A091FE01B091FF01C82AF5
:103C5000D92AEA2AFB2ACFE1D0E0BC2ED701C6013F
:103C60000C2E04C0B695A795979587950A94D2F720
:103C700080FD0EC0219788F7B12C8B2DDF91CF915D
:103C80001F910F91FF90EF90DF90CF90BF9008951C
:103C9000B8018C2F0E94F907019761F3EECFCF9303
:103CA000DF93EC010E940D1EBE01DF91CF910C94B9
:103CB000F9071F93CF93DF93EB019091B5019923FF
:103CC00031F0CB01DF91CF911F910C944F1E8823CF
:103CD00079F0CB010E940D1E182F682FCE010E9493
:103CE000BA1DBE01812FDF91CF911F910C94F9076E
:103CF000CB010E94E61D182FF4CF682F80910001A0
:103D0000909101010C94B220682F80910001909154
:103D100001010C94BD2080910001909101010C944F
:103D2000C82080910002859585958595089580919C
:103D300000028770089590910002977081E009F465
:103D400080E0089580912402089590912402892BA7
:103D50008093240208958095909124029823909353
:103D60002402089510922402089590912302892B31
:103D70008093230208958095909123029823909335
:103D80002302089510922302089590912202892B14
:103D90008093220208958095909122029823909317
:103DA000220208951092220208958091010208953E
:103DB00008950C94D81E90910102981721F08093D9
:103DC00001020C94D91E089580910102882329F0E4
:103DD0001092010280E00C94D91E0895E091000138
:103DE000F0910101809124028083E0910001F09123
:103DF0000101808190912302892B8083E091000151
:103E0000F0910101808190912202892B8083909111
:103E10000102992381F0E0910001F091010180817C
:103E2000892B808380910001909101010E94FC1FE9
:103E300081110E94E41E80910001909101010C9477
:103E4000FD1308950C94211F98E0899F900111247F
:103E5000622B609300020E941E1D809100028595D6
:103E6000859585950C94221F1092000280E00C9499
:103E7000221F909100028095892380930002282FB1
:103E8000277071F4282F082E000C330B921713069D
:103E900039F08595859585950E943F1D0C94341FBA
:103EA000089590E080E00E94722921E08B3E9E4FB1
:103EB00009F020E0822F089582E090E00C946429BC
:103EC00083E090E00C946429CF9384E090E00E941A
:103ED0006429C82F81E290E00E946429982F8C2FDA
:103EE000CF910895CF93C92F682F84E090E00E946E
:103EF00078296C2F81E290E0CF910C947829AB0166
:103F0000BC018FE090E00C948A29AB01BC0183E1F5
:103F100090E00C948A2960E070E0CB010C94851F3E
:103F200060E070E0CB010E947F1F0C948B1F6BEE52
:103F30007EEF90E080E00E94962960E082E090E0D1
:103F40000E94782960E083E090E00E947829109236
:103F5000FC011092FD011092FE011092FF0160E041
:103F600084E090E00E94782960E081E290E00E9485
:103F7000782960E085E090E00E94782960E086E0A2
:103F800090E00E9478296FEF87E090E00E94782906
:103F900040E050E0BA0188E090E00E948A2960E0A9
:103FA0008DE090E00E94782940E050E0BA0188E17D
:103FB00090E00E948A2960E087E190E00E947829E1
:103FC00040E050E0BA018CE190E00E948A2960E074
:103FD00080E290E00E94782940E050E0BA0188E158
:103FE00090E00E948A290C94901F0C94971F682FD0
:103FF0008EE090E00C947829FC01329680910C01BF
:10400000882321F080915D029EE187FF96E080E0A9
:10401000915008F4089521912223D1F38F5FF8CFB6
:10402000662301F120910C012223F1F020915D0221
:1040300027FF1AC0462F4695469546954E3190F477
:10404000677021E030E002C0220F331F6A95E2F76B
:10405000840F911DFC01828190E02823392381E0A7
:10406000232B69F480E00895FC0132960896219193
:10407000261721F0E817F907D1F7F4CF81E008956A
:104080009C01FC0132969FEF80E04191461751F070
:104090009F3F19F4411101C0982F8F5F8630A9F717
:1040A0009F3F09F40895290F311D97FD3A95F901B5
:1040B00062830895FC01329608962191261303C06D
:1040C000DF0111971C92E817F907B9F70895E62F59
:1040D000E695E695E695EE3170F4E80FF92FF11DBF
:1040E000677021E030E001C0220F6A95EAF7828113
:1040F000822B828308958091250280FF0CC01F923D
:104100006F9387E49AE09F938F930E94E7060F9046
:104110000F900F900F900895E62FE695E695E6959F
:10412000EE3178F4E80FF92FF11D677021E030E0EF
:1041300001C0220F6A95EAF7209582812823228305
:1041400008958091250280FF0CC01F926F9389E231
:104150009AE09F938F930E94E7060F900F900F9025
:104160000F90089520910C01222329F020915D02E7
:1041700027FD0C9467200C94402020910C012223F1
:1041800029F020915D0227FD0C948C200C945A207C
:10419000FC01329680910C01882351F080915D02E0
:1041A00087FF06C08EE1DF011D928A95E9F7089529
:1041B00086E0F9CF089508950C94DB208091630286
:1041C000843049F10E94DC2080E00E94D1071092E7
:1041D000260288E190E020E40FB6F894A895809339
:1041E00060000FBE2093600083B7817F846083BF2F
:1041F00083B7816083BF7894889583B78E7F83BFB0
:104200000FB6F894A8958091600088618093600053
:10421000109260000FBE08950895CF930E94DA2097
:104220000E94780A0E940C21C0E08C2F0E94E509B0
:10423000811105C0CF5FC430C1F7CF91089581E0EF
:10424000FCCF08950C9421210E9424190E94F1139F
:104250000E94D1070C9422211F921FB61F92112495
:104260008F939F93AF93BF9380912602811113C0C8
:104270008091590290915A02A0915B02B0915C0228
:104280004196A11DB11D8093590290935A02A093AB
:104290005B02B0935C02BF91AF919F918F911F9091
:1042A0001FBE1F90189582E084BD93E095BD9AEFE4
:1042B00097BD80936E0008952FB7F89480915902AE
:1042C00090915A02A0915B02B0915C022FBF0895B9
:1042D0002FB7F8946091590270915A0280915B0255
:1042E00090915C022FBF08959C014FB7F894809184
:1042F000590290915A02A0915B02B0915C024FBFAB
:10430000821B930B089578941F921FB61F9211245D
:104310008F939F93AF93BF938091590290915A02CC
:10432000A0915B02B0915C020196A11DB11D80932A
:10433000590290935A02A0935B02B0935C02BF9122
:10434000AF919F918F911F901FBE1F90189587E787
:1043500097E7909301088093000888E19AE00FB6F0
:10436000F894A895809360000FBE90936000FFCFF3
:10437000909391018093900108950E94511F8111A3
:1043800002C00E94F51F0E945C1F809325020E94BC
:10439000641F90935E0280935D020E94601F682FED
:1043A00070E090E080E00E94BC1C6091F801709188
:1043B000F9018091FA019091FB010C94F61C809117
:1043C0004A0208950895CF93DF9300D00F92CDB79E
:1043D000DEB790916302943019F589837B836A83F9
:1043E00082E08093E9008FEF9091E800815095FD85
:1043F00006C095ED9A95F1F700008111F5CF8091F7
:10440000E80085FF0DC050E040E063E070E0CE01C1
:1044100001960E94AE248091E8008E778093E80098
:104420000F900F900F90DF91CF910895BC0184E021
:104430000C94E321BC0183E00C94E321CF93DF9340
:10444000EC0180910C018823B1F180915D0287FF1E
:1044500032C060E282E08093E9008FEF9091E80043
:10446000815095FD06C095ED9A95F1F700008111F8
:10447000F5CF8091E80085FF1BC080910C0170E0B2
:1044800050E040E0811104C050E040E068E070E09E
:10449000CE010E94AE248091E8008E778093E800E0
:1044A00080E2FE01AAE2B2E001900D928A95E1F766
:1044B000DF91CF91089568E081E0CDCF8AE89AE05E
:1044C0000E944E0680916202811109C00E943E2620
:1044D0000E949B268091E20084608093E200089510
:1044E00086E89AE00E944E0610926202089582E8E1
:1044F0009AE00C944E068EE79AE00C944E068AE7FA
:104500009AE00C944E06209128022F5F822F62E3DE
:104510000E943E29992319F02093280208951092B1
:104520002802809129028823F1F08091630284306F
:10453000C1F49091E9009F702091EC00822F81706E
:1045400020FD80E8892B93E09093E9009091EB00A7
:1045500090FF04C09091EE0097FD08C08F7080938B
:10456000E9001092290208951092F1009091E8005C
:1045700095FDFACF9091E80090FFF0CF9091E80080
:104580009E779093E800EACF42E061EC81E00E94E0
:10459000BA2542E261EC82E00E94BA2542E261EC77
:1045A00083E00C94BA2580916502833009F45FC0E2
:1045B00030F48130C1F1823009F49BC008958A3013
:1045C00009F487C08B3009F46DC0893009F04EC002
:1045D00080916402813209F049C080916802909113
:1045E0006902029708F042C08091E800877F8093BB
:1045F000E8008091E80082FF35C09091F30080913F
:10460000F200029729F48091F1008B7F813021F430
:104610008091F10080934A028091E8008B7780932B
:10462000E8000C94EE2580916402813AF9F48091BF
:10463000E800877F8093E80080916802909169028A
:10464000892B61F460E28AE292E070E00E94FD242E
:104650008091E8008B778093E800089560E090E017
:1046600080E0F3CF809163028111C3CF08958091E0
:104670006402813AD9F78091680290916902892B8E
:10468000A9F78091E800877F8093E8008091E80097
:1046900080FFFCCF80910C018093F1008091E800B5
:1046A0008E77BDCF80916402813201F780916802DC
:1046B00090916902892BD1F68091E800877F8093E1
:1046C000E8000E94EE258091660280930C010C9414
:1046D000241980916402813249F68091E800877F35
:1046E0008093E8000E94EE258091670280934B0240
:1046F000089580916402813A09F0B8CF8091E80072
:10470000877F8093E8008091E80080FFFCCF809154
:104710004B02C2CF9FB7F894109229029FBF90918D
:104720006302943009F048C02091E9002F70309165
:10473000EC00932F917030FD90E8922B23E02093B2
:10474000E9002091EB0020FF34C02091EE0027FF0C
:1047500030C020912702222321F02091E80025FF7C
:1047600028C01092270226E03091E80035FF14C0DF
:104770008093F1008091E80085FD27C08091E800DA
:1047800080FFFCCF8091E8008E778093E8009F70D7
:104790009093E90080E0089530916302343049F449
:1047A0003091EB0035FD05C0215041F481E080934C
:1047B00027029F709093E9008FEF0895EFE9FFE0E3
:1047C0003197F1F700C00000CFCF8FB7F89421E008
:1047D000209329028FBFDBCF84B7877F84BF0FB6BA
:1047E000F894A89580916000886180936000109291
:1047F00060000FBE80E890E00FB6F89480936100EF
:10480000909361000FBE0E94A5140E943E260E9454
:104810009B268091E20084608093E20078940E945D
:1048200023290E94B51482E091E00E94EC1389E6EE
:104830009AE00E944E0680916302853051F485E62D
:104840009AE00E944E0680916302853049F00E94F2
:1048500024210E94E7140E94B3140E94B414EBCFE9
:104860000E94DE2080916102882369F30E940D215D
:10487000882349F30E9498240E942419E4CF0C94C1
:104880004124292F33272330310521F168F42130C9
:10489000310509F443C02230310509F444C090E0E9
:1048A00080E030E020E026C02132310551F1223293
:1048B0003105A9F76330710590F7FB01EE0FFF1F7B
:1048C000EC57FE4F208131816F577E4FFB01808175
:1048D00090E010C099278130910581F0009729F070
:1048E0000297E9F6EEE8FAE002C0E2EBFAE0849122
:1048F00090E09F01FA01318320830895E2EAFAE013
:10490000F6CF6330710558F6660F771FFB01E65747
:10491000FE4F2081318189E090E0ECCF82E190E090
:1049200021E13BE0E7CF8BE590E026EB3AE0E2CFF8
:1049300080E189BD82E189BD09B400FEFDCF80918F
:10494000D8008F7D8093D8008091E00082608093B2
:10495000E0008091E00081FDFCCF0895AF92BF920E
:10496000CF92DF92FF920F931F93CF93DF936C014F
:10497000EB018A010E940D26F82E811123C001153A
:10498000110539F0F80180819181C81BD90BC80E3F
:10499000D91EB12CA12C2097A9F08091E80085FDAB
:1049A00022C08091E8008E778093E8000115110500
:1049B000A1F0F80180819181A80EB91EB182A08278
:1049C00085E0F82E8F2DDF91CF911F910F91FF90F1
:1049D000DF90CF90BF90AF9008950E940D2688235E
:1049E000D1F2F82EEFCFF60181916F018093F100A3
:1049F0002197FFEFAF1ABF0ACECFFC0180916A0268
:104A000090916B0286179707A0F06115710529F444
:104A10009091E8009E779093E80090E06115710511
:104A200051F4911108C08091E80082FF34C080E009
:104A30000895BC01F2CF809163028823C1F18530D3
:104A4000C1F18091E80083FD30C08091E80082FDD3
:104A5000EACF8091E80080FFE1CF8091F3002091C0
:104A6000F200382F6115710519F02830310558F022
:104A700091E02830310509F090E02091E8002E7790
:104A80002093E800CBCF81918093F10061507109B0
:104A90002F5F3F4FE7CF80916302882341F085303D
:104AA00041F08091E80083FFBECF81E0089582E06D
:104AB000089583E00895FC0180916A0290916B0251
:104AC00086179707A0F06115710529F48091E80019
:104AD0008E778093E80090E06115710551F4911193
:104AE00008C08091E80082FF35C080E00895BC01D5
:104AF000F2CF809163028823C9F18530C9F180919A
:104B0000E80083FD31C08091E80082FDEACF80910A
:104B1000E80080FFE1CF8091F3002091F200382F70
:104B20006115710519F02830310558F091E02830F1
:104B3000310509F090E08091E8008E778093E800DD
:104B4000CBCF84918093F1003196615071092F5F32
:104B50003F4FE6CF80916302882341F0853041F0DA
:104B60008091E80083FFBDCF81E0089582E0089541
:104B700083E00895982F973028F08F708093E90094
:104B800081E008959093E900242F762F50E0981744
:104B900031F07091EC002091ED005091F00021FD7A
:104BA00002C09F5FE8CF3091EB003E7F3093EB0077
:104BB0003091ED003D7F3093ED003091EB0031609E
:104BC0003093EB007093EC002093ED005093F000D5
:104BD0002091EE0027FDE5CF80E0089580916402EA
:104BE00087FF13C08091E80082FF06C08091E80033
:104BF0008B778093E80004C0809163028111F2CF2B
:104C00000895809163028823D9F38091E80080FFA2
:104C1000F8CF8091E8008E77ECCF2091E4003091BE
:104C2000E50095E6A9012091EC00822F817020FF1C
:104C300006C08091E80080FF06C080E008952091C2
:104C4000E80022FD1AC080916302882389F0853034
:104C500089F08091EB0085FD0FC02091E400309138
:104C6000E50042175307F9F29150E1F684E0089508
:104C700082E0089583E0089581E008950E94AC26C3
:104C80000E94B426E0EEF0E0808181608083E8ED50
:104C9000F0E080818F77808319BCA7EDB0E08C9124
:104CA0008E7F8C9380818F7E808310926202089524
:104CB0000F931F93CF93DF930E94AC260E94B426DC
:104CC000C8EDD0E088818F77888388818068888369
:104CD00088818F7D888319BC1092630210925F02D5
:104CE000109261021092600200EE10E0F8018081E3
:104CF0008B7F808388818160888342E060E080E0F0
:104D00000E94BA25E1EEF0E080818E7F8083E2EEA2
:104D1000F0E0808181608083808188608083F801F9
:104D200080818E7F8083888180618883DF91CF91AD
:104D30001F910F910895E8EDF0E080818F7E8083D0
:104D4000E7EDF0E080818160808384E082BF81E0D4
:104D5000809362020C945826E8EDF0E080818E7F0B
:104D600080831092E20008951092DA001092E10020
:104D700008951F920F920FB60F9211242F933F9315
:104D80004F935F936F937F938F939F93AF93BF9353
:104D9000EF93FF938091E10082FF0BC08091E200CE
:104DA00082FF07C08091E1008B7F8093E1000E9429
:104DB00083228091DA0080FF19C08091D80080FFA3
:104DC00015C08091DA008E7F8093DA008091D9003F
:104DD00080FF96C080E189BD82E189BD09B400FEF3
:104DE000FDCF81E0809363020E945E228091E1000A
:104DF00080FF19C08091E20080FF15C08091E20021
:104E00008E7F8093E2008091E20080618093E200D7
:104E10008091D80080628093D80019BC85E080938F
:104E200063020E947B228091E10084FF2BC080916D
:104E3000E20084FF27C080E189BD82E189BD89B598
:104E4000982F917080FFFBCF8091D8008F7D809349
:104E5000D8008091E1008F7E8093E1008091E20094
:104E60008F7E8093E2008091E20081608093E20077
:104E700080915F02882309F449C084E08093630233
:104E80000E947F228091E10083FF29C08091E2008F
:104E900083FF25C08091E100877F8093E10082E05D
:104EA0008093630210925F028091E1008E7F809375
:104EB000E1008091E2008E7F8093E2008091E20029
:104EC00080618093E20042E060E080E00E94BA25C9
:104ED0008091F00088608093F0000E947722FF911B
:104EE000EF91BF91AF919F918F917F916F915F9162
:104EF0004F913F912F910F900FBE0F901F901895DB
:104F000019BC109263020E94702270CF8091E3005E
:104F100087FD93E090936302B3CF1F920F920FB679
:104F20000F9211242F933F934F935F936F937F932F
:104F30008F939F93AF93BF93CF93DF93EF93FF93A1
:104F4000D091E900DF708091EC00C82FC17080FD26
:104F5000C0E81092E9008091F000877F8093F00014
:104F600078940E94D1271092E9008091F000886027
:104F70008093F000CD2BCF70C093E900FF91EF91AB
:104F8000DF91CF91BF91AF919F918F917F916F9161
:104F90005F914F913F912F910F900FBE0F901F90F7
:104FA00018951F93CF93DF93CDB7DEB7AA970FB6AF
:104FB000F894DEBF0FBECDBF84E692E02091F100F1
:104FC000FC012193CF01F2E08C369F07B9F70E94D4
:104FD000D3228091E80083FF1EC1809164029091EA
:104FE00065029A3008F017C1E92FF0E0E15EF54D57
:104FF0000C945E29803899F0823809F00CC18091B8
:1050000068028F70873008F006C18093E9008091B4
:10501000EB0085FB882780F91092E90006C080919B
:10502000600290916102911182609091E800977FF7
:105030009093E8008093F1001092F1008091E800D5
:105040008E77E5C0882309F4D3C0823009F0E3C02D
:10505000809166028111D6C0809168028F702FEF17
:10506000280F263008F0D7C08093E9002091EB008C
:1050700020FFC8C0933031F48091EB0080628093B0
:10508000EB00C0C09091EB0090619093EB0021E0A9
:1050900030E001C0220F8A95EAF72093EA001092CF
:1050A000EA008091EB008860EACF8111B4C01091D2
:1050B00066021F778091E3008078812B8093E30064
:1050C0008091E800877F8093E8000E94EE25809120
:1050D000E80080FFFCCF8091E30080688093E300CC
:1050E00082E0111183E08093630295C08058823082
:1050F00008F091C080916602909167028C3D23E098
:105100009207A1F583E08A838AE289834FB7F894F6
:10511000DE01139620E03EE051E2E32FF0E05093F1
:105120005700E49120FF03C0E295EF703F5FEF70FE
:105130008E2F90E0EA30C0F0C7968D939D932F5F3D
:10514000243159F74FBF8091E800877F8093E800B2
:105150006AE270E0CE0101960E94FD248091E80091
:105160008B778093E80057C0C096E7CF60916802C4
:1051700070916902AE014F5F5F4F0E943F24BC01F6
:10518000892B09F448C09091E800977F9093E8003C
:1051900089819A810E945B25E1CF8038E1F5809179
:1051A000E800877F8093E80080915F028093F100A0
:1051B00045CF811130C090916602923060F58091A8
:1051C000E800877F8093E80090935F020E94EE25BD
:1051D00080915F02882311F084E005C08091E30094
:1051E00087FDFACF81E0809363020E94C42213C03E
:1051F00080916602813079F481E0933009F080E09B
:10520000809361021092E9008091E800877F80938B
:10521000E8000E94EE258091E80083FF0AC080919B
:10522000E800877F8093E8008091EB0080628093A4
:10523000EB00AA960FB6F894DEBF0FBECDBFDF918C
:10524000CF911F910895CF93809163028823A1F09D
:10525000C091E900CF709091EC00892F817090FD92
:1052600080E8C82B1092E9008091E80083FD0E943D
:10527000D127CF70C093E900CF910895991B79E0B1
:1052800004C0991F961708F0961B881F7A95C9F7D6
:1052900080950895AA1BBB1B51E107C0AA1FBB1F25
:1052A000A617B70710F0A61BB70B881F991F5A95B2
:1052B000A9F780959095BC01CD010895EE0FFF1FD1
:1052C0000590F491E02D0994F999FECF92BD81BD2E
:1052D000F89A992780B50895A6E1B0E044E050E03F
:1052E0000C949E29A8E1B0E042E050E00C949E2985
:1052F000262FF999FECF92BD81BDF89A019700B48F
:10530000021639F01FBA20BD0FB6F894FA9AF99A2E
:105310000FBE08950396272F0E9479290E947829AD
:10532000252F0E947929242F0C9479290196272F63
:105330000E9479290C947829DC01CB01FC01F999B0
:10534000FECF06C0F2BDE1BDF89A319600B40D92D1
:1053500041505040B8F70895F894FFCFA50C920C37
:10536000AC0C2E0B690D690D8D0C690D690DD80CF7
:10537000690DE80C4F0D690D690D690D690D0B0D77
:10538000690D690DF80C690DC30C690D690D670D88
:10539000670D670D670D670D670D670D670D670D6D
:1053A000610D690DA50C860C690D690D690D690DFE
:1053B000690D690D690D690D690D690D610D690D45
:1053C000690D8D0C690D650D650D650D650D650D1E
:1053D000650D650D650D650D610D73117B118211F4
:1053E00087118C11911196119B11A011A511AA1171
:1053F000AF11751175117511751175117511751143
:105400007511FC16FC1654175417A61729172917DF
:105410002917C2174E185D185D18B91829172917D2
:10542000C218331933193C193C193E193C193C195F
:105430003C193319331943193C193C194319FA27FC
:1054400022280B2922280B29552876280B29CD281C
:02545000D92859
:105452000202DF211E22E2211A22162201E200E9C3
:1054620000EA00B500B600B700CD008301CC008A87
:10547200019201940121022302240225022602271D
:10548200022A02B300B4006F007000818283F49399
:10549200F592F694F766319733C632343635000109
:1054A200E200E900EA00B500B600B700CD008301D2
:1054B200CC008A01920194012102230224022502D6
:1054C200260227022A02B300B4006F007000818214
:1054D20083406D22B20B450B230BC80AE10AFA0A7C
:00000001FF
